:020000040800F2
:100000000050002081250008F5230008FD2300088A
:10001000052400080D240008152400080000000035
:100020000000000000000000000000001D24000887
:10003000292400080000000035240008412400089D
:10004000C9250008C9250008C9250008C9250008D8
:10005000C9250008C9250008C9250008C9250008C8
:10006000C9250008C9250008C9250008C9250008B8
:10007000C9250008C9250008C9250008C9250008A8
:10008000C9250008C9250008C9250008C925000898
:10009000C9250008C9250008C9250008C925000888
:1000A000C9250008C9250008C9250008C925000878
:1000B0004D240008C9250008C9250008C9250008E5
:1000C000C9250008C9250008C9250008C925000858
:1000D000C9250008C9250008C9250008C925000848
:1000E000C9250008C9250008C9250008000000002E
:1000F0000000000000000000000000000000000000
:0C01000000000000000000005FF808F1A3
:10010C000348044B834202D0034B03B1184770479A
:10011C000C0000200C000020000000000548064BDD
:10012C001B1AD90F01EBA301491002D0034B03B1E9
:10013C00184770470C0000200C0000200000000045
:10014C0010B5064C237843B9FFF7DAFF044B13B113
:10015C000448AFF300800123237010BD0C00002075
:10016C00000000002426000808B5054B1BB105490A
:10017C000548AFF30080BDE80840FFF7CFBF00BFD4
:10018C0000000000100000202426000880B400AFFE
:10019C0000BFBD4680BC704780B582B000AF7860B0
:1001AC007B68002B01D10123A1E07B681B68524ABC
:1001BC00934213D07B681B68B3F1804F0ED07B68E1
:1001CC001B684E4A934209D07B681B684C4A934289
:1001DC0004D040F213114B4802F0C9F87B689B68BD
:1001EC00002B14D07B689B68102B10D07B689B680D
:1001FC00202B0CD07B689B68402B08D07B689B68BD
:10020C00602B04D04FF48A713E4802F0B0F87B6842
:10021C001B69002B0ED07B681B69B3F5807F09D05E
:10022C007B681B69B3F5007F04D040F2151135488B
:10023C0002F09DF87B68DB68002B04D07B68DB68E0
:10024C00B3F5803F04D34FF48B712E4802F08FF836
:10025C007B689B69002B08D07B689B69802B04D042
:10026C0040F21711274802F082F87B6893F83D3072
:10027C00DBB2002B06D17B68002283F83C20786827
:10028C0002F034F97B68022283F83D207B681A68FF
:10029C007B6804331946104600F006FC7B6801228B
:1002AC0083F846207B68012283F83E207B6801227C
:1002BC0083F83F207B68012283F840207B68012271
:1002CC0083F841207B68012283F842207B6801225D
:1002DC0083F843207B68012283F844207B68012249
:1002EC0083F845207B68012283F83D2000231846C3
:1002FC000837BD4680BD00BF002C01400004004003
:10030C00000800403C26000880B584B000AF78603F
:10031C007B681B68DB68FB607B681B681B69BB60C8
:10032C00BB6803F00203002B20D0FB6803F0020330
:10033C00002B1BD07B681B686FF002021A617B6874
:10034C0001221A777B681B689B6903F00303002B5F
:10035C0003D0786800F08CFB05E0786800F07FFB38
:10036C00786800F08EFB7B6800221A77BB6803F07C
:10037C000403002B20D0FB6803F00403002B1BD0DC
:10038C007B681B686FF004021A617B6802221A7783
:10039C007B681B689B6903F44073002B03D078685F
:1003AC0000F066FB05E0786800F059FB786800F017
:1003BC0068FB7B6800221A77BB6803F00803002BEC
:1003CC0020D0FB6803F00803002B1BD07B681B6854
:1003DC006FF008021A617B6804221A777B681B682D
:1003EC00DB6903F00303002B03D0786800F040FBBB
:1003FC0005E0786800F033FB786800F042FB7B681E
:10040C0000221A77BB6803F01003002B20D0FB6886
:10041C0003F01003002B1BD07B681B686FF01002DD
:10042C001A617B6808221A777B681B68DB6903F406
:10043C004073002B03D0786800F01AFB05E0786855
:10044C0000F00DFB786800F01CFB7B6800221A772B
:10045C00BB6803F00103002B0CD0FB6803F0010315
:10046C00002B07D07B681B686FF001021A6178685B
:10047C0000F0ECFABB6803F08003002B0CD0FB6897
:10048C0003F08003002B07D07B681B686FF08002A1
:10049C001A61786800F0BFFCBB6803F04003002BC6
:1004AC000CD0FB6803F04003002B07D07B681B6863
:1004BC006FF040021A61786800F0ECFABB6803F048
:1004CC002003002B0CD0FB6803F02003002B07D07B
:1004DC007B681B686FF020021A61786800F092FC50
:1004EC0000BF1037BD4680BD80B584B000AF7860CA
:1004FC0039600023FB737B6893F83C30012B01D1EE
:10050C00022396E27B68012283F83C207B6802225E
:10051C0083F83D203B681B68B3F5805F29D03B68AE
:10052C001B68702B25D03B681B68B3F5005F20D08F
:10053C003B681B68402B1CD03B681B68502B18D0A9
:10054C003B681B68602B14D03B681B68002B10D0D9
:10055C003B681B68102B0CD03B681B68202B08D009
:10056C003B681B68302B04D041F2C2416B4801F050
:10057C00FEFE7B681B689B68BB60BB6823F077033F
:10058C00BB60BB6823F47F43BB607B681B68BA68A5
:10059C009A603B681B68B3F5005F00F0C780B3F549
:1005AC00005F00F23982B3F5805F2DD0B3F5805F28
:1005BC0000F23282702B45D0702B00F22D82602B12
:1005CC0000F06781602B00F22782502B00F0158120
:1005DC00502B00F22182402B00F0B081402B00F216
:1005EC001B82302B00F0F681302B00F21582202B71
:1005FC0000F0F081202B00F20F82002B00F0EA813A
:10060C00102B00F0E78107E27B681B68444A934299
:10061C0000F005827B681B68B3F1804F00F0FF810E
:10062C007B681B683F4A934200F0F9817B681B682A
:10063C003D4A934200F0F38141F2CE41374801F03C
:10064C0096FEECE17B681B68354A934213D07B68BD
:10065C001B68B3F1804F0ED07B681B68314A934204
:10066C0009D07B681B68304A934204D041F2D541D3
:10067C002A4801F07CFE3B689B68002B13D03B683A
:10068C009B68B3F5805F0ED03B689B68B3F5005F49
:10069C0009D03B689B68B3F5405F04D041F2D84168
:1006AC001E4801F064FE3B685B68B3F5004F14D044
:1006BC003B685B68002B10D03B685B68002B0CD050
:1006CC003B685B68022B08D03B685B680A2B04D044
:1006DC0041F2D941114801F04AFE3B68DB680F2B0F
:1006EC0004D941F2DA410D4801F041FE7B681868EB
:1006FC003B6899683B685A683B68DB6800F0B9FA5C
:10070C007B681B689B68BB60BB6843F07703BB606E
:10071C007B681B68BA689A6082E100BF3C260008BF
:10072C00002C014000040040000800407B681B685E
:10073C007E4A934213D07B681B68B3F1804F0ED076
:10074C007B681B687A4A934209D07B681B68794A9C
:10075C00934204D041F2ED41774801F008FE3B682A
:10076C009B68002B13D03B689B68B3F5805F0ED061
:10077C003B689B68B3F5005F09D03B689B68B3F599
:10078C00405F04D041F2F0416B4801F0F0FD3B6852
:10079C005B68B3F5004F14D03B685B68002B10D03E
:1007AC003B685B68002B0CD03B685B68022B08D065
:1007BC003B685B680A2B04D041F2F1415E4801F0C2
:1007CC00D6FD3B68DB680F2B04D941F2F2415A4845
:1007DC0001F0CDFD7B6818683B6899683B685A68E6
:1007EC003B68DB6800F045FA7B681B689A687B689D
:1007FC001B6842F480429A6012E17B681B684B4A8A
:10080C00934213D07B681B68B3F1804F0ED07B688A
:10081C001B68474A934209D07B681B68454A934240
:10082C0004D041F20151444801F0A1FD3B685B68E2
:10083C00B3F5004F14D03B685B68002B10D03B68BD
:10084C005B68002B0CD03B685B68022B08D03B68C4
:10085C005B680A2B04D041F20451374801F087FD44
:10086C003B68DB680F2B04D941F20551324801F08B
:10087C007EFD7B6818683B6859683B68DB681A46E4
:10088C0000F080F97B681B685021184600F0D7F9FE
:10089C00C6E07B681B68254A934213D07B681B68B3
:1008AC00B3F1804F0ED07B681B68214A934209D06C
:1008BC007B681B681F4A934204D041F211511E48B9
:1008CC0001F055FD3B685B68B3F5004F14D03B68F5
:1008DC005B68002B10D03B685B68002B0CD03B682E
:1008EC005B68022B08D03B685B680A2B04D041F292
:1008FC001451114801F03BFD3B68DB680F2B04D908
:10090C0041F215510C4801F032FD7B6818683B68C8
:10091C0059683B68DB681A4600F062F97B681B6813
:10092C006021184600F08BF97AE000BF002C0140E2
:10093C0000040040000800403C2600087B681B684F
:10094C003E4A934213D07B681B68B3F1804F0ED0A4
:10095C007B681B683A4A934209D07B681B68394A0A
:10096C00934204D041F22151374801F000FD3B681D
:10097C005B68B3F5004F14D03B685B68002B10D05C
:10098C003B685B68002B0CD03B685B68022B08D083
:10099C003B685B680A2B04D041F224512A4801F0D1
:1009AC00E6FC3B68DB680F2B04D941F22551264845
:1009BC0001F0DDFC7B6818683B6859683B68DB68B4
:1009CC001A4600F0DFF87B681B684021184600F0DF
:1009DC0036F925E07B681B68184A934213D07B6874
:1009EC001B68B3F1804F0ED07B681B68144A93428E
:1009FC0009D07B681B68134A934204D041F23451EE
:100A0C00114801F0B4FC7B681A683B681B681946F6
:100A1C00104600F014F903E00123FB7300E000BF63
:100A2C007B68012283F83D207B68002283F83C2000
:100A3C00FB7B18461037BD4680BD00BF002C014023
:100A4C0000040040000800403C26000880B483B03D
:100A5C0000AF786000BF0C37BD4680BC704780B4D7
:100A6C0083B000AF786000BF0C37BD4680BC7047C8
:100A7C0080B483B000AF786000BF0C37BD4680BC3B
:100A8C00704780B483B000AF786000BF0C37BD46B0
:100A9C0080BC704780B483B000AF786000BF0C3767
:100AAC00BD4680BC7047000080B485B000AF786054
:100ABC0039607B681B68FB607B682F4A93420BD0C4
:100ACC007B68B3F1804F07D07B682C4A934203D0EC
:100ADC007B682B4A934208D1FB6823F07003FB60C0
:100AEC003B685B68FA681343FB607B68224A93425D
:100AFC000BD07B68B3F1804F07D07B681F4A9342C1
:100B0C0003D07B681E4A934208D1FB6823F44073E0
:100B1C00FB603B68DB68FA681343FB60FB6823F0FF
:100B2C0080023B685B691343FB607B68FA681A6060
:100B3C003B689A687B68DA623B681A687B689A62E1
:100B4C007B680D4A934203D13B681A697B681A6330
:100B5C007B6801225A617B681B6903F00103002B3F
:100B6C0005D07B681B6923F001027B681A6100BF0A
:100B7C001437BD4680BC7047002C01400004004077
:100B8C000008004080B487B000AFF860B9607A60AC
:100B9C00FB681B6A7B61FB681B6A23F00102FB6824
:100BAC001A62FB689B693B613B6923F0F0033B6174
:100BBC007B681B013A6913433B617B6923F00A0391
:100BCC007B617A69BB6813437B61FB683A699A6104
:100BDC00FB687A691A6200BF1C37BD4680BC70473F
:100BEC0080B487B000AFF860B9607A60FB681B6AAC
:100BFC007B61FB681B6A23F01002FB681A62FB68BE
:100C0C009B693B613B6923F470433B617B681B032D
:100C1C003A6913433B617B6923F0A0037B61BB689A
:100C2C001B017A6913437B61FB683A699A61FB6823
:100C3C007A691A6200BF1C37BD4680BC704780B40D
:100C4C0085B000AF786039607B689B68FB60FB689F
:100C5C0023F07003FB603A68FB68134343F007030F
:100C6C00FB607B68FA689A6000BF1437BD4680BC95
:100C7C00704780B487B000AFF860B9607A603B60B1
:100C8C00FB689B687B617B6923F47F437B613B68DA
:100C9C001A027B681A43BB6813437A6913437B615E
:100CAC00FB687A699A6000BF1C37BD4680BC7047F0
:100CBC0080B584B000AF786039607B681B684D4AA2
:100CCC00934213D07B681B68B3F1804F0ED07B68C6
:100CDC001B68494A934209D07B681B68474A934278
:100CEC0004D040F2A971464801F041FB3B681B68F7
:100CFC00002B20D03B681B68102B1CD03B681B685A
:100D0C00202B18D03B681B68302B14D03B681B6819
:100D1C00402B10D03B681B68502B0CD03B681B68D9
:100D2C00602B08D03B681B68702B04D040F2AA7172
:100D3C00334801F01CFB3B685B68802B08D03B6898
:100D4C005B68002B04D040F2AB712D4801F00FFB17
:100D5C007B6893F83C30012B01D1022346E07B6881
:100D6C00012283F83C207B68022283F83D207B68BB
:100D7C001B685B68FB607B681B689B68BB60FB68DF
:100D8C0023F07003FB603B681B68FA681343FB603D
:100D9C007B681B68FA685A607B681B68154A93422B
:100DAC000ED07B681B68B3F1804F09D07B681B6841
:100DBC00114A934204D07B681B68104A93420CD1B1
:100DCC00BB6823F08003BB603B685B68BA68134365
:100DDC00BB607B681B68BA689A607B68012283F8E9
:100DEC003D207B68002283F83C20002318461037F6
:100DFC00BD4680BD002C01400004004000080040AE
:100E0C00A026000880B483B000AF786000BF0C3718
:100E1C00BD4680BC704780B483B000AF786000BF23
:100E2C000C37BD4680BC704780B500AF084B1B68C3
:100E3C00074A43F010031360032001F051F90F200F
:100E4C0000F008F801F09EFA0023184680BD00BFA0
:100E5C000020024080B582B000AF7860124B1A6857
:100E6C00124B1B7819464FF47A73B3FBF1F3B2FBB8
:100E7C00F3F3184601F098F90346002B01D0012337
:100E8C000EE07B680F2B0AD8002279684FF0FF30F8
:100E9C0001F046F9064A7B681360002300E0012349
:100EAC0018460837BD4680BD000000200800002011
:100EBC000400002080B400AF054B1B781A46054B8C
:100ECC001B681344034A136000BFBD4680BC7047C7
:100EDC00080000202800002080B400AF024B1B68E3
:100EEC001846BD4680BC70472800002080B584B0F1
:100EFC0000AF7860FFF7F0FFB8607B68FB60FB68C1
:100F0C00B3F1FF3F05D00A4B1B781A46FB6813441C
:100F1C00FB6000BFFFF7E0FF0246BB68D31AFA681C
:100F2C009A42F7D800BF00BF1037BD4680BD00BF46
:100F3C000800002080B586B000AF78607B68002B7D
:100F4C0001D101235AE37B681B68002B1CD07B6802
:100F5C001B6803F00103002B16D17B681B6803F0A0
:100F6C000203002B10D17B681B6803F00803002BD5
:100F7C000AD17B681B6803F00403002B04D140F2F8
:100F8C0065118F4801F0F3F97B681B6803F00103CE
:100F9C00002B00F09A807B685B68002B0ED07B687E
:100FAC005B68B3F5803F09D07B685B68B3F5A02F15
:100FBC0004D040F26B11824801F0D9F9814B5B6887
:100FCC0003F00C03042B0CD07E4B5B6803F00C037A
:100FDC00082B12D17B4B5B6803F48033B3F5803F55
:100FEC000BD1784B1B6803F40033002B6CD07B685F
:100FFC005B68002B68D1012300E37B685B68B3F569
:10100C00803F06D16F4B1B686E4A43F480331360EC
:10101C002EE07B685B68002B0CD16A4B1B68694A1D
:10102C0023F480331360674B1B68664A23F48023D8
:10103C0013601DE07B685B68B3F5A02F0CD1614B8E
:10104C001B68604A43F4802313605E4B1B685D4A47
:10105C0043F4803313600BE05A4B1B68594A23F45A
:10106C0080331360574B1B68564A23F4802313605C
:10107C007B685B68002B13D0FFF72EFF386108E00C
:10108C00FFF72AFF02463B69D31A642B01D90323CD
:10109C00B4E24C4B1B6803F40033002BF0D014E08B
:1010AC00FFF71AFF386108E0FFF716FF02463B69AD
:1010BC00D31A642B01D90323A0E2424B1B6803F41F
:1010CC000033002BF0D100E000BF7B681B6803F0FD
:1010DC000203002B00F080807B681B69002B08D07A
:1010EC007B681B69012B04D040F29F11344801F03E
:1010FC003EF97B685B691F2B04D94FF4D0713048E3
:10110C0001F035F92F4B5B6803F00C03002B0BD06F
:10111C002C4B5B6803F00C03082B1CD1294B5B6830
:10112C0003F48033002B16D1264B1B6803F002030B
:10113C00002B05D07B681B69012B01D001235DE2DC
:10114C00204B1B6823F0F8027B685B69DB001D49B0
:10115C0013430B6040E07B681B69002B20D01A4BBB
:10116C0001221A60FFF7B8FE386108E0FFF7B4FE01
:10117C0002463B69D31A022B01D903233EE2114BE1
:10118C001B6803F00203002BF0D00E4B1B6823F0FE
:10119C00F8027B685B69DB000A4913430B601BE0B8
:1011AC00094B00221A60FFF797FE38610EE0FFF73B
:1011BC0093FE02463B69D31A022B07D903231DE287
:1011CC000827000800100240000042427D4B1B68BB
:1011DC0003F00203002BEAD17B681B6803F00803C1
:1011EC00002B40D07B689B69002B08D07B689B69E7
:1011FC00012B04D04FF4F071734801F0B8F87B6800
:10120C009B69002B19D0714B01221A60FFF764FE09
:10121C00386108E0FFF760FE02463B69D31A022BE7
:10122C0001D90323EAE1674B5B6A03F00203002B4D
:10123C00F0D0012000F0D0FB15E0644B00221A60C6
:10124C00FFF74AFE386108E0FFF746FE02463B69AD
:10125C00D31A022B01D90323D0E15A4B5B6A03F05A
:10126C000203002BF0D17B681B6803F00403002BF6
:10127C0000F0BF800023FB757B68DB68002B0CD073
:10128C007B68DB68012B08D07B68DB68052B04D0FE
:10129C0040F20F214C4801F06AF84A4BDB6903F02D
:1012AC008053002B0DD1474BDB69464A43F08053EA
:1012BC00D361444BDB6903F08053BB60BB680123F3
:1012CC00FB75434B1B6803F48073002B18D1404B08
:1012DC001B683F4A43F480731360FFF7FDFD3861D0
:1012EC0008E0FFF7F9FD02463B69D31A642B01D9DC
:1012FC00032383E1364B1B6803F48073002BF0D07F
:10130C007B68DB68012B06D12E4B1B6A2D4A43F000
:10131C00010313622DE07B68DB68002B0CD1294B99
:10132C001B6A284A23F001031362264B1B6A254AC9
:10133C0023F0040313621CE07B68DB68052B0CD1E3
:10134C00204B1B6A1F4A43F0040313621D4B1B6A9C
:10135C001C4A43F0010313620BE01A4B1B6A194A37
:10136C0023F001031362174B1B6A164A23F0040384
:10137C0013627B68DB68002B15D0FFF7ADFD38617D
:10138C000AE0FFF7A9FD02463B69D31A41F2883205
:10139C00934201D9032331E10A4B1B6A03F0020388
:1013AC00002BEED01CE0FFF797FD386112E0FFF741
:1013BC0093FD02463B69D31A41F28832934209D914
:1013CC0003231BE10010024008270008800442425E
:1013DC00007000408B4B1B6A03F00203002BE6D11C
:1013EC00FB7D012B05D1874BDB69864A23F08053AB
:1013FC00D3617B68DB69002B0CD07B68DB69012B2C
:10140C0008D07B68DB69022B04D040F2AD217E480A
:10141C0000F0ADFF7B68DB69002B00F0EE80794BB0
:10142C005B6803F00C03082B00F0CE807B68DB6953
:10143C00022B40F0B2807B681B6A002B09D07B68C2
:10144C001B6AB3F5803F04D040F2B6216E4800F021
:10145C008EFF7B685B6A002B4AD07B685B6AB3F5B6
:10146C00802F45D07B685B6AB3F5002F40D07B683A
:10147C005B6AB3F5402F3BD07B685B6AB3F5801F8A
:10148C0036D07B685B6AB3F5A01F31D07B685B6A92
:10149C00B3F5C01F2CD07B685B6AB3F5E01F27D077
:1014AC007B685B6AB3F5001F22D07B685B6AB3F57F
:1014BC00101F1DD07B685B6AB3F5201F18D07B68AA
:1014CC005B6AB3F5301F13D07B685B6AB3F5401FC2
:1014DC000ED07B685B6AB3F5501F09D07B685B6AE2
:1014EC00B3F5601F04D040F2B721474800F03FFF2E
:1014FC00464B00221A60FFF7EFFC386108E0FFF75B
:10150C00EBFC02463B69D31A022B01D9032375E08D
:10151C003C4B1B6803F00073002BF0D17B681B6AFB
:10152C00B3F5803F16D17B689B68002B09D07B6894
:10153C009B68B3F5003F04D040F2CD21324800F057
:10154C0016FF304B5B6823F400327B689B682D4997
:10155C0013434B602B4B5B6823F474127B68196A42
:10156C007B685B6A0B43274913434B60274B012273
:10157C001A60FFF7B1FC386108E0FFF7ADFC0246DA
:10158C003B69D31A022B01D9032337E01D4B1B688F
:10159C0003F00073002BF0D02FE01C4B00221A60DC
:1015AC00FFF79AFC386108E0FFF796FC02463B69AE
:1015BC00D31A022B01D9032320E0124B1B6803F032
:1015CC000073002BF0D118E07B68DB69012B01D193
:1015DC00012313E00B4B5B68FB60FB6803F4803268
:1015EC007B681B6A9A4206D1FB6803F470127B6815
:1015FC005B6A9A4201D0012300E000231846183799
:10160C00BD4680BD00100240082700086000424221
:10161C0080B584B000AF786039607B68002B01D155
:10162C00012376E17B681B6803F00103002B16D1C4
:10163C007B681B6803F00203002B10D17B681B68CE
:10164C0003F00403002B0AD17B681B6803F008032A
:10165C00002B04D140F23631744800F088FE3B6810
:10166C00002B0AD03B68012B07D03B68022B04D01F
:10167C0040F237316D4800F07AFE6D4B1B6803F079
:10168C0007033A689A4210D9694B1B6823F007028A
:10169C0067493B6813430B60654B1B6803F00703FA
:1016AC003A689A4201D0012333E17B681B6803F04E
:1016BC000203002B49D07B681B6803F00403002B4A
:1016CC0005D05C4B5B685B4A43F4E06353607B681A
:1016DC001B6803F00803002B05D0564B5B68554A7A
:1016EC0043F4605353607B689B68002B24D07B6869
:1016FC009B68802B20D07B689B68902B1CD07B68D0
:10170C009B68A02B18D07B689B68B02B14D07B688F
:10171C009B68C02B10D07B689B68D02B0CD07B684F
:10172C009B68E02B08D07B689B68F02B04D040F2C0
:10173C005D313E4800F01BFE3E4B5B6823F0F0022F
:10174C007B689B683B4913434B607B681B6803F0C9
:10175C000103002B51D07B685B68002B0CD07B689D
:10176C005B68012B08D07B685B68022B04D04FF4BC
:10177C0059712E4800F0FBFD7B685B68012B07D18B
:10178C002C4B1B6803F40033002B15D10123C0E054
:10179C007B685B68022B07D1264B1B6803F0007338
:1017AC00002B09D10123B4E0224B1B6803F0020388
:1017BC00002B01D10123ACE01E4B5B6823F003022C
:1017CC007B685B681B4913434B60FFF785FBF86034
:1017DC000AE0FFF781FB0246FB68D31A41F288321C
:1017EC00934201D9032394E0124B5B6803F00C0283
:1017FC007B685B689B009A42EBD10D4B1B6803F036
:10180C0007033A689A4217D2094B1B6823F0070268
:10181C0007493B6813430B60054B1B6803F0070338
:10182C003A689A4208D0012373E000BF08270008E9
:10183C0000200240001002407B681B6803F0040388
:10184C00002B25D07B68DB68002B18D07B68DB680D
:10185C00B3F5806F13D07B68DB68B3F5A06F0ED047
:10186C007B68DB68B3F5C06F09D07B68DB68B3F5C8
:10187C00E06F04D040F2A231284800F078FD284BEC
:10188C005B6823F4E0627B68DB68254913434B609B
:10189C007B681B6803F00803002B26D07B681B6950
:1018AC00002B18D07B681B69B3F5806F13D07B6855
:1018BC001B69B3F5A06F0ED07B681B69B3F5C06FC5
:1018CC0009D07B681B69B3F5E06F04D040F2A931F5
:1018DC00124800F04CFD124B5B6823F460527B689D
:1018EC001B69DB000E4913434B6000F021F80246E4
:1018FC000B4B5B681B0903F00F030A49CB5C22FA04
:10190C0003F3094A1360094B1B681846FFF7A2FA48
:10191C00002318461037BD4680BD00BF08270008BD
:10192C0000100240382800080000002004000020AD
:10193C0080B487B000AF0023FB600023BB600023A2
:10194C007B6100237B6000233B611E4B5B68FB606B
:10195C00FB6803F00C03042B02D0082B03D027E008
:10196C00194B3B6127E0FB689B0C03F00F03174AF4
:10197C00D35C7B60FB6803F48033002B10D0114BDD
:10198C005B685B0C03F00103114AD35CBB607B68A2
:10199C000D4A03FB02F2BB68B2FBF3F37B6104E07C
:1019AC007B680C4A02FB03F37B617B693B6102E0C1
:1019BC00054B3B6100BF3B6918461C37BD4680BCDC
:1019CC00704700BF0010024000127A00482800083F
:1019DC005828000800093D0080B485B000AF78603D
:1019EC000A4B1B680A4AA2FB03235B0A7A6802FBB8
:1019FC0003F3FB6000BFFB685A1EFA60002BF9D1A1
:101A0C0000BF00BF1437BD4680BC704700000020EB
:101A1C00D34D621080B58AB000AF78603960002376
:101A2C007B6200233B627B68964A934213D07B68AF
:101A3C00954A93420FD07B68944A93420BD07B68B3
:101A4C00934A934207D07B68924A934203D0BD21BC
:101A5C00914800F08CFC3B681B689BB2002B04D0B7
:101A6C003B681B68B3F5803F03D3BE218A4800F066
:101A7C007EFC3B685B68002B00F01D823B685B685A
:101A8C00012B00F018823B685B68112B00F013826D
:101A9C003B685B68022B00F00E823B685B68122B84
:101AAC0000F009823B685B687C4A934200F0038239
:101ABC003B685B687A4A934200F0FD813B685B6847
:101ACC00784A934200F0F7813B685B68764A934210
:101ADC0000F0F1813B685B68744A934200F0EB8143
:101AEC003B685B68724A934200F0E5813B685B6837
:101AFC00032B00F0E081BF21674800F038FCDAE1ED
:101B0C0001227B6A02FA03F3FB613B681B68FA69EA
:101B1C001340BB61BA69FB699A4240F0C9817B688A
:101B2C00584A934213D07B68574A93420FD07B6834
:101B3C00564A93420BD07B68554A934207D07B6838
:101B4C00544A934203D0CD21534800F010FC3B681B
:101B5C005B68574A934200F0C280554A934200F2A8
:101B6C00E880504A934200F0BA804E4A934200F209
:101B7C00E0804E4A934200F0B2804C4A934200F20D
:101B8C00D880474A934200F0AA80454A934200F21B
:101B9C00D080454A934200F0A280434A934200F21F
:101BAC00C880122B2CD8122B00F2C38001A252F841
:101BBC0023F000BFEB1C0008151C0008671C000874
:101BCC00391D00083F1D00083F1D00083F1D00087F
:101BDC003F1D00083F1D00083F1D00083F1D000869
:101BEC003F1D00083F1D00083F1D00083F1D000859
:101BFC003F1D00083F1D00083D1C0008C11C0008CB
:101C0C00264A93426BD094E03B68DB68022B0BD0E6
:101C1C003B68DB68012B07D03B68DB68032B03D0E8
:101C2C00D5211D4800F0A3FB3B68DB683B6281E0DB
:101C3C003B68DB68022B0BD03B68DB68012B07D0C1
:101C4C003B68DB68032B03D0DC21134800F08FFBCF
:101C5C003B68DB6804333B626CE03B68DB68022B5F
:101C6C000BD03B68DB68012B07D03B68DB68032B90
:101C7C0003D0E321084800F07AFB3B68DB680833AB
:101C8C003B6257E000080140000C0140001001408D
:101C9C0000140140001801406C27000800001110CE
:101CAC000000211000003110000012100000221062
:101CBC00000032103B68DB68022B0BD03B68DB6802
:101CCC00012B07D03B68DB68032B03D0EA2180484B
:101CDC0000F04DFB3B68DB680C333B622AE03B6851
:101CEC009B68002B0BD03B689B68012B07D03B6893
:101CFC009B68022B03D0F721754800F038FB3B683A
:101D0C009B68002B02D104233B6213E03B689B6869
:101D1C00012B05D108233B627B68FA691A6109E043
:101D2C0008233B627B68FA695A6103E000233B623B
:101D3C0000E000BFBB69FF2B01D87B6801E07B682A
:101D4C0004337B61BB69FF2B02D87B6A9B0002E0EA
:101D5C007B6A083B9B003B617B691A680F213B69DE
:101D6C0001FA03F3DB431A40396A3B6901FA03F3C6
:101D7C001A437B691A603B685B6803F08053002B45
:101D8C0000F09680534B9B69524A43F001039361D8
:101D9C00504B9B6903F00103BB60BB684E4A7B6AE6
:101DAC009B08023352F82330FB607B6A03F0030379
:101DBC009B000F2202FA03F3DB43FA681340FB602B
:101DCC007B68464A934213D07B68454A93420DD0B8
:101DDC007B68444A934207D07B68434A934201D1C3
:101DEC00032306E0042304E0022302E0012300E0C5
:101DFC0000237A6A02F0030292009340FA681343BC
:101E0C00FB6035497B6A9B080233FA6841F8232052
:101E1C003B685B6803F48013002B06D0334B9A6845
:101E2C003249BB6913438B6006E0304B9A68BB693F
:101E3C00DB432E4913408B603B685B6803F4001353
:101E4C00002B06D0294BDA682849BB691343CB60B9
:101E5C0006E0264BDA68BB69DB4324491340CB60B0
:101E6C003B685B6803F40033002B06D01F4B5A68A9
:101E7C001E49BB6913434B6006E01C4B5A68BB6997
:101E8C00DB431A4913404B603B685B6803F48033B7
:101E9C00002B06D0154B1A681449BB6913430B6011
:101EAC0006E0124B1A68BB69DB43104913400B6008
:101EBC007B6A01337B623B681A687B6A22FA03F304
:101ECC00002B7FF41DAE00BF00BF2837BD4680BD80
:101EDC006C2700080010024000000140000801407F
:101EEC00000C0140001001400014014000040140AE
:101EFC0080B582B000AF78600B467B8013467B7058
:101F0C007B88002B04D14FF4EA710E4800F02FFAB5
:101F1C007B78002B07D07B78012B04D040F2D511B5
:101F2C00084800F024FA7B78002B03D07A887B6871
:101F3C001A6103E07B881A047B681A6100BF0837BA
:101F4C00BD4680BD6C27000880B485B000AF7860BA
:101F5C007B6803F00703FB600C4BDB68BB60BA6863
:101F6C004FF6FF031340BB60FB681A02BB681343B8
:101F7C0043F0BF6343F40033BB60044ABB68D360D7
:101F8C0000BF1437BD4680BC704700BF00ED00E0B9
:101F9C0080B400AF044BDB681B0A03F00703184640
:101FAC00BD4680BC704700BF00ED00E080B483B03C
:101FBC0000AF0346FB7197F90730002B0BDBFB7965
:101FCC0003F01F02064997F907305B09012000FA5C
:101FDC0002F241F8232000BF0C37BD4680BC70478D
:101FEC0000E100E080B483B000AF03463960FB71C0
:101FFC0097F90730002B0ADB3B68DAB20C4997F9EA
:10200C0007301201D2B20B4483F800230AE03B687C
:10201C00DAB20849FB7903F00F03043B1201D2B288
:10202C000B441A7600BF0C37BD4680BC704700BF0E
:10203C0000E100E000ED00E080B489B000AFF86092
:10204C00B9607A60FB6803F00703FB61FB69C3F1BD
:10205C000703042B28BF0423BB61FB690433062B45
:10206C0002D9FB69033B00E000237B614FF0FF3298
:10207C00BB6902FA03F3DA43BB681A407B699A40E6
:10208C004FF0FF317B6901FA03F3D9437B680B40B6
:10209C00134318462437BD4680BC704780B582B0C8
:1020AC0000AF78607B68013BB3F1807F01D30123E3
:1020BC000FE00A4A7B68013B53600F214FF0FF3061
:1020CC00FFF790FF054B00229A60044B07221A6021
:1020DC00002318460837BD4680BD00BF10E000E065
:1020EC0080B582B000AF78607B68072B0FD07B681F
:1020FC00062B0CD07B68052B09D07B68042B06D0F3
:10210C007B68032B03D09121044800F030F97868E8
:10211C00FFF71AFF00BF0837BD4680BDD027000867
:10212C0080B586B000AF0346B9607A60FB730023BC
:10213C007B617B680F2B03D9A9210E4800F017F99E
:10214C00BB680F2B03D9AA210A4800F010F9FFF73E
:10215C001FFF78617A68B9687869FFF76DFF0246EE
:10216C0097F90F3011461846FFF73CFF00BF1837A0
:10217C00BD4680BDD027000880B582B000AF0346B5
:10218C00FB7197F90730002B03DABD21054800F0ED
:10219C00EEF897F907301846FFF708FF00BF08372D
:1021AC00BD4680BDD027000880B582B000AF7860F6
:1021BC007868FFF773FF034618460837BD4680BDA5
:1021CC0080B588B000AF07F1100300221A605A6086
:1021DC009A60DA60344B9B69334A43F01003936185
:1021EC00314B9B6903F01003FB60FB682E4B9B6922
:1021FC002D4A43F0200393612B4B9B6903F0200382
:10220C00BB60BB68284B9B69274A43F0040393616E
:10221C00254B9B6903F004037B607B68224B9B6915
:10222C00214A43F0080393611F4B9B6903F0080399
:10223C003B603B6801224FF400511C48FFF758FEED
:10224C004FF400533B6101237B610023BB610223EC
:10225C00FB6107F1100319461448FFF7DBFB4FF441
:10226C0040433B6103237B6107F1100319460F4880
:10227C00FFF7D0FB49F6FF733B6103237B6107F14A
:10228C00100319460A48FFF7C5FB4FF6FF733B6175
:10229C0003237B6107F1100319460648FFF7BAFBCD
:1022AC0000BF2037BD4680BD001002400010014029
:1022BC0000080140000C014080B500AFFEF7B4FDF2
:1022CC0000F00AF8FFF77CFF00F0C4F800F032F9D8
:1022DC0000F036F900BFFDE780B590B000AF07F114
:1022EC00180328220021184600F069F93B1D002232
:1022FC001A605A609A60DA601A610123BB614FF46C
:10230C008033FB6100233B620123BB6202237B63AE
:10231C004FF48033BB634FF4E013FB6307F11803F6
:10232C001846FEF707FE0346002B01D000F019F803
:10233C000F237B600223BB600023FB604FF48063A0
:10234C003B6100237B613B1D02211846FFF760F9BE
:10235C000346002B01D000F004F800BF4037BD4607
:10236C0080BD80B400AF72B600BF00BFFDE780B483
:10237C0083B000AF7860396000BF0C37BD4680BCBD
:10238C007047000080B485B000AF154B9B69144AB0
:10239C0043F001039361124B9B6903F00103BB6093
:1023AC00BB680F4BDB690E4A43F08053D3610C4B77
:1023BC00DB6903F080537B607B680A4B5B68FB60D6
:1023CC00FB6823F0E063FB60FB6843F00073FB6089
:1023DC00044AFB68536000BF1437BD4680BC70478D
:1023EC00001002400000014080B400AF00BFFDE7C8
:1023FC0080B400AF00BFFDE780B400AF00BFFDE7C5
:10240C0080B400AF00BFFDE780B400AF00BFFDE7B4
:10241C0080B400AF00BFBD4680BC704780B400AF35
:10242C0000BFBD4680BC704780B400AF00BFBD4646
:10243C0080BC704780B500AFFEF73CFD00BF80BD8F
:10244C0080B500AF0248FDF75FFF00BF80BD00BF45
:10245C002C00002080B586B000AF07F108030022E5
:10246C001A605A609A60DA603B4600221A605A6021
:10247C001D4B4FF080421A601B4B41F61F425A60B5
:10248C00194B00229A60184B0922DA60164B002275
:10249C001A61154B00229A611348FDF77DFE034625
:1024AC00002B01D0FFF75DFF4FF48053BB6007F1A9
:1024BC00080319460C48FEF717F80346002B01D009
:1024CC00FFF74FFF00233B6000237B603B46194620
:1024DC000548FEF7EDFB0346002B01D0FFF741FF4B
:1024EC0000BF1837BD4680BD2C00002080B584B0DD
:1024FC0000AF78607B681B68B3F1804F13D10C4B35
:10250C00DB690B4A43F00103D361094BDB6903F030
:10251C000103FB60FB68002200211C20FFF700FE7A
:10252C001C20FFF729FE00BF1037BD4680BD00BF41
:10253C000010024080B400AF00BFBD4680BC7047A5
:10254C0080B500AF00224FF400510948FFF7D0FCD2
:10255C004FF4FA70FEF7CAFC01224FF40051044804
:10256C00FFF7C6FC4FF4FA70FEF7C0FC00BFE9E7BA
:10257C0000100140FDF70AFE0B480C490C4A0023E1
:10258C0002E0D458C4500433C4188C42F9D3094A1D
:10259C00094C002301E013600432A242FBD300F08B
:1025AC0017F8FFF789FE7047000000200C00002090
:1025BC00642800080C00002074000020FEE703468D
:1025CC000244934200D1704703F8011BF9E7000065
:1025DC0070B500260C4D0D4B5B1B9C10A64209D10F
:1025EC00002600F019F80A4D0A4B5B1B9C10A64202
:1025FC0005D170BD55F8043B98470136EEE755F808
:10260C00043B98470136F2E75C2800085C28000878
:10261C005C28000860280008F8B500BFF8BC08BCAE
:10262C009E467047F8B500BFF8BC08BC9E46704784
:10263C00433A2F55736572732F4E696A696E672022
:10264C0059692F4465736B746F702F524D2F7072D4
:10265C006F6A656374732F4C616230312F447269F9
:10266C00766572732F53544D3332463178785F4808
:10267C00414C5F4472697665722F5372632F737489
:10268C006D3332663178785F68616C5F74696D2E7A
:10269C0063000000433A2F55736572732F4E696ABD
:1026AC00696E672059692F4465736B746F702F5274
:1026BC004D2F70726F6A656374732F4C6162303189
:1026CC002F447269766572732F53544D33324631F1
:1026DC0078785F48414C5F4472697665722F53720B
:1026EC00632F73746D3332663178785F68616C5F19
:1026FC0074696D5F65782E6300000000433A2F55B6
:10270C00736572732F4E696A696E672059692F441D
:10271C0065736B746F702F524D2F70726F6A656397
:10272C0074732F4C616230312F4472697665727309
:10273C002F53544D3332463178785F48414C5F44C7
:10274C0072697665722F5372632F73746D333266B0
:10275C003178785F68616C5F7263632E6300000090
:10276C00433A2F55736572732F4E696A696E6720F1
:10277C0059692F4465736B746F702F524D2F7072A3
:10278C006F6A656374732F4C616230312F447269C8
:10279C00766572732F53544D3332463178785F48D7
:1027AC00414C5F4472697665722F5372632F737458
:1027BC006D3332663178785F68616C5F6770696F12
:1027CC002E630000433A2F55736572732F4E696A5E
:1027DC00696E672059692F4465736B746F702F5243
:1027EC004D2F70726F6A656374732F4C6162303158
:1027FC002F447269766572732F53544D33324631C0
:10280C0078785F48414C5F4472697665722F5372D9
:10281C00632F73746D3332663178785F68616C5FE7
:10282C00636F727465782E63000000000000000076
:10283C000000000001020304060708090203040556
:10284C00060708090A0B0C0D0E0F101001020000F0
:04285C0075010008FA
:042860004D0100081E
:0C28640000127A001000000001000000CB
:040000050800258149
:00000001FF
