:020000040800F2
:1000000000500020F13A0008DD360008E53600080F
:10001000ED360008F5360008FD3600080000000047
:10002000000000000000000000000000053700088C
:1000300011370008000000001D37000829370008AC
:10004000393B0008393B0008393B0008393B0008C0
:10005000393B0008393B0008393B0008393B0008B0
:10006000393B0008393B0008393B0008393B0008A0
:10007000393B0008393B0008393B00083537000898
:10008000393B0008393B0008393B0008393B000880
:10009000393B0008393B0008393B0008393B000870
:1000A000393B0008393B0008393B0008393B000860
:1000B00049370008393B0008393B0008393B000844
:1000C000393B0008393B0008393B0008393B000840
:1000D000393B00085D37000871370008393B0008DC
:1000E000393B0008393B0008393B0008000000009C
:1000F0000000000000000000000000000000000000
:0C01000000000000000000005FF808F1A3
:10010C000348044B834202D0034B03B1184770479A
:10011C000C0000200C000020000000000548064BDD
:10012C001B1AD90F01EBA301491002D0034B03B1E9
:10013C00184770470C0000200C0000200000000045
:10014C0010B5064C237843B9FFF7DAFF044B13B113
:10015C000448AFF300800123237010BD0C00002075
:10016C0000000000943B000808B5054B1BB1054985
:10017C000548AFF30080BDE80840FFF7CFBF00BFD4
:10018C000000000010000020943B000880B400AF79
:10019C0000BFBD4680BC704780B582B000AF7860B0
:1001AC007B68002B01D10123A1E07B681B68524ABC
:1001BC00934213D07B681B68B3F1804F0ED07B68E1
:1001CC001B684E4A934209D07B681B684C4A934289
:1001DC0004D040F213114B4803F02EFA7B689B6855
:1001EC00002B14D07B689B68102B10D07B689B680D
:1001FC00202B0CD07B689B68402B08D07B689B68BD
:10020C00602B04D04FF48A713E4803F015FA7B68DA
:10021C001B69002B0ED07B681B69B3F5807F09D05E
:10022C007B681B69B3F5007F04D040F2151135488B
:10023C0003F002FA7B68DB68002B04D07B68DB6878
:10024C00B3F5803F04D34FF48B712E4803F0F4F9CF
:10025C007B689B69002B08D07B689B69802B04D042
:10026C0040F21711274803F0E7F97B6893F83D300B
:10027C00DBB2002B06D17B68002283F83C20786827
:10028C0003F0C6FA7B68022283F83D207B681A686B
:10029C007B6804331946104600F068FC7B68012229
:1002AC0083F846207B68012283F83E207B6801227C
:1002BC0083F83F207B68012283F840207B68012271
:1002CC0083F841207B68012283F842207B6801225D
:1002DC0083F843207B68012283F844207B68012249
:1002EC0083F845207B68012283F83D2000231846C3
:1002FC000837BD4680BD00BF002C01400004004003
:10030C0000080040AC3B000880B584B000AF7860BA
:10031C007B681B682E4A934213D07B681B68B3F131
:10032C00804F0ED07B681B682A4A934209D07B68A9
:10033C001B68294A934204D04FF4E871274803F014
:10034C007BF97B6893F83D30DBB2012B01D00123A4
:10035C003AE07B68022283F83D207B681B68DA68F0
:10036C007B681B6842F00102DA607B681B68184AE4
:10037C0093420ED07B681B68B3F1804F09D07B6829
:10038C001B68144A934204D07B681B68124A934240
:10039C0011D17B681B689B6803F00703FB60FB684B
:1003AC00062B10D07B681B681A687B681B6842F0B0
:1003BC0001021A6007E07B681B681A687B681B687F
:1003CC0042F001021A60002318461037BD4680BD6A
:1003DC00002C01400004004000080040AC3B000829
:1003EC0080B584B000AF78607B681B68DB68FB600D
:1003FC007B681B681B69BB60BB6803F00203002BA6
:10040C0020D0FB6803F00203002B1BD07B681B6819
:10041C006FF002021A617B6801221A777B681B68F5
:10042C009B6903F00303002B03D0786800F083FB77
:10043C0005E0786800F076FB786800F085FB7B6857
:10044C0000221A77BB6803F00403002B20D0FB6852
:10045C0003F00403002B1BD07B681B686FF00402B5
:10046C001A617B6802221A777B681B689B6903F40C
:10047C004073002B03D0786800F05DFB05E07868D2
:10048C0000F050FB786800F05FFB7B6800221A7765
:10049C00BB6803F00803002B20D0FB6803F00803B3
:1004AC00002B1BD07B681B686FF008021A617B68FD
:1004BC0004221A777B681B68DB6903F00303002BAB
:1004CC0003D0786800F037FB05E0786800F02AFB71
:1004DC00786800F039FB7B6800221A77BB6803F060
:1004EC001003002B20D0FB6803F01003002B1BD053
:1004FC007B681B686FF010021A617B6808221A7700
:10050C007B681B68DB6903F44073002B03D07868AD
:10051C0000F011FB05E0786800F004FB786800F04F
:10052C0013FB7B6800221A77BB6803F00103002BD6
:10053C000CD0FB6803F00103002B07D07B681B6811
:10054C006FF001021A61786803F080F8BB6803F061
:10055C008003002B0CD0FB6803F08003002B07D02A
:10056C007B681B686FF080021A61786800F0B5FC3C
:10057C00BB6803F04003002B0CD0FB6803F0400376
:10058C00002B07D07B681B686FF040021A617868FB
:10059C0000F0E3FABB6803F02003002B0CD0FB68DF
:1005AC0003F02003002B07D07B681B686FF0200240
:1005BC001A61786800F088FC00BF1037BD4680BD1A
:1005CC0080B584B000AF786039600023FB737B6822
:1005DC0093F83C30012B01D1022396E27B68012277
:1005EC0083F83C207B68022283F83D203B681B6823
:1005FC00B3F5805F29D03B681B68702B25D03B6816
:10060C001B68B3F5005F20D03B681B68402B1CD0E7
:10061C003B681B68502B18D03B681B68602B14D0B0
:10062C003B681B68002B10D03B681B68102B0CD050
:10063C003B681B68202B08D03B681B68302B04D010
:10064C0041F2C2416B4802F0F7FF7B681B689B6864
:10065C00BB60BB6823F07703BB60BB6823F47F43AC
:10066C00BB607B681B68BA689A603B681B68B3F513
:10067C00005F00F0C780B3F5005F00F23982B3F57C
:10068C00805F2DD0B3F5805F00F23282702B45D0A5
:10069C00702B00F22D82602B00F06781602B00F232
:1006AC002782502B00F01581502B00F22182402B19
:1006BC0000F0B081402B00F21B82302B00F0F68151
:1006CC00302B00F21582202B00F0F081202B00F251
:1006DC000F82002B00F0EA81102B00F0E78107E27B
:1006EC007B681B68444A934200F005827B681B6858
:1006FC00B3F1804F00F0FF817B681B683F4A934247
:10070C0000F0F9817B681B683D4A934200F0F3814D
:10071C0041F2CE41374802F08FFFECE17B681B6859
:10072C00354A934213D07B681B68B3F1804F0ED0CF
:10073C007B681B68314A934209D07B681B68304A3E
:10074C00934204D041F2D5412A4802F075FF3B6830
:10075C009B68002B13D03B689B68B3F5805F0ED071
:10076C003B689B68B3F5005F09D03B689B68B3F5A9
:10077C00405F04D041F2D8411E4802F05DFF3B6857
:10078C005B68B3F5004F14D03B685B68002B10D04E
:10079C003B685B68002B0CD03B685B68022B08D075
:1007AC003B685B680A2B04D041F2D941114802F036
:1007BC0043FF3B68DB680F2B04D941F2DA410D484B
:1007CC0002F03AFF7B6818683B6899683B685A6886
:1007DC003B68DB6800F0AFFA7B681B689B68BB600A
:1007EC00BB6843F07703BB607B681B68BA689A6090
:1007FC0082E100BFAC3B0008002C0140000400402B
:10080C00000800407B681B687E4A934213D07B68CB
:10081C001B68B3F1804F0ED07B681B687A4A9342F9
:10082C0009D07B681B68794A934204D041F2ED41B0
:10083C00774802F001FF3B689B68002B13D03B68A4
:10084C009B68B3F5805F0ED03B689B68B3F5005F87
:10085C0009D03B689B68B3F5405F04D041F2F0418E
:10086C006B4802F0E9FE3B685B68B3F5004F14D0AF
:10087C003B685B68002B10D03B685B68002B0CD08E
:10088C003B685B68022B08D03B685B680A2B04D082
:10089C0041F2F1415E4802F0CFFE3B68DB680F2B62
:1008AC0004D941F2F2415A4802F0C6FE7B6818683E
:1008BC003B6899683B685A683B68DB6800F03BFA18
:1008CC007B681B689A687B681B6842F480429A605C
:1008DC0012E17B681B684B4A934213D07B681B6800
:1008EC00B3F1804F0ED07B681B68474A934209D006
:1008FC007B681B68454A934204D041F2015144483D
:10090C0002F09AFE3B685B68B3F5004F14D03B686D
:10091C005B68002B10D03B685B68002B0CD03B68ED
:10092C005B68022B08D03B685B680A2B04D041F251
:10093C000451374802F080FE3B68DB680F2B04D96A
:10094C0041F20551324802F077FE7B6818683B682B
:10095C0059683B68DB681A4600F076F97B681B68BF
:10096C005021184600F0CDF9C6E07B681B68254A7B
:10097C00934213D07B681B68B3F1804F0ED07B6819
:10098C001B68214A934209D07B681B681F4A93421B
:10099C0004D041F211511E4802F04EFE3B685B68D8
:1009AC00B3F5004F14D03B685B68002B10D03B684C
:1009BC005B68002B0CD03B685B68022B08D03B6853
:1009CC005B680A2B04D041F21451114802F034FE3A
:1009DC003B68DB680F2B04D941F215510C4802F02F
:1009EC002BFE7B6818683B6859683B68DB681A46C5
:1009FC0000F058F97B681B686021184600F081F9FB
:100A0C007AE000BF002C01400004004000080040C8
:100A1C00AC3B00087B681B683E4A934213D07B6852
:100A2C001B68B3F1804F0ED07B681B683A4A934227
:100A3C0009D07B681B68394A934204D041F221519A
:100A4C00374802F0F9FD3B685B68B3F5004F14D0F2
:100A5C003B685B68002B10D03B685B68002B0CD0AC
:100A6C003B685B68022B08D03B685B680A2B04D0A0
:100A7C0041F224512A4802F0DFFD3B68DB680F2B62
:100A8C0004D941F22551264802F0D6FD7B6818683E
:100A9C003B6859683B68DB681A4600F0D5F87B6800
:100AAC001B684021184600F02CF925E07B681B6878
:100ABC00184A934213D07B681B68B3F1804F0ED059
:100ACC007B681B68144A934209D07B681B68134AE5
:100ADC00934204D041F23451114802F0ADFD7B68D1
:100AEC001A683B681B681946104600F00AF903E0C7
:100AFC000123FB7300E000BF7B68012283F83D20DB
:100B0C007B68002283F83C20FB7B18461037BD46DF
:100B1C0080BD00BF002C01400004004000080040D4
:100B2C00AC3B000880B483B000AF786000BF0C37DA
:100B3C00BD4680BC704780B483B000AF786000BF06
:100B4C000C37BD4680BC704780B483B000AF786072
:100B5C0000BF0C37BD4680BC704780B483B000AF7B
:100B6C00786000BF0C37BD4680BC704780B485B040
:100B7C0000AF786039607B681B68FB607B682F4A2C
:100B8C0093420BD07B68B3F1804F07D07B682C4A23
:100B9C00934203D07B682B4A934208D1FB6823F025
:100BAC007003FB603B685B68FA681343FB607B680F
:100BBC00224A93420BD07B68B3F1804F07D07B68FD
:100BCC001F4A934203D07B681E4A934208D1FB68AC
:100BDC0023F44073FB603B68DB68FA681343FB60EB
:100BEC00FB6823F080023B685B691343FB607B6806
:100BFC00FA681A603B689A687B68DA623B681A6824
:100C0C007B689A627B680D4A934203D13B681A69F0
:100C1C007B681A637B6801225A617B681B6903F04D
:100C2C000103002B05D07B681B6923F001027B6854
:100C3C001A6100BF1437BD4680BC7047002C0140C0
:100C4C00000400400008004080B487B000AFF8609A
:100C5C00B9607A60FB681B6A7B61FB681B6A23F0D6
:100C6C000102FB681A62FB689B693B613B6923F0DC
:100C7C00F0033B617B681B013A6913433B617B6961
:100C8C0023F00A037B617A69BB6813437B61FB68C1
:100C9C003A699A61FB687A691A6200BF1C37BD46D3
:100CAC0080BC704780B487B000AFF860B9607A60E0
:100CBC00FB681B6A7B61FB681B6A23F01002FB68F4
:100CCC001A62FB689B693B613B6923F470433B618F
:100CDC007B681B033A6913433B617B6923F0A003D8
:100CEC007B61BB681B017A6913437B61FB683A69C2
:100CFC009A61FB687A691A6200BF1C37BD4680BCDA
:100D0C00704780B485B000AF786039607B689B68B1
:100D1C00FB60FB6823F07003FB603A68FB681343CD
:100D2C0043F00703FB607B68FA689A6000BF1437D6
:100D3C00BD4680BC704780B487B000AFF860B96026
:100D4C007A603B60FB689B687B617B6923F47F4323
:100D5C007B613B681A027B681A43BB6813437A6950
:100D6C0013437B61FB687A699A6000BF1C37BD46F0
:100D7C0080BC704780B584B000AF786039607B6808
:100D8C001B684D4A934213D07B681B68B3F1804FAC
:100D9C000ED07B681B68494A934209D07B681B685C
:100DAC00474A934204D040F2A971464802F044FCF1
:100DBC003B681B68002B20D03B681B68102B1CD099
:100DCC003B681B68202B18D03B681B68302B14D059
:100DDC003B681B68402B10D03B681B68502B0CD019
:100DEC003B681B68602B08D03B681B68702B04D0D9
:100DFC0040F2AA71334802F01FFC3B685B68802B01
:100E0C0008D03B685B68002B04D040F2AB712D48D6
:100E1C0002F012FC7B6893F83C30012B01D10223C9
:100E2C0046E07B68012283F83C207B68022283F831
:100E3C003D207B681B685B68FB607B681B689B685C
:100E4C00BB60FB6823F07003FB603B681B68FA68AF
:100E5C001343FB607B681B68FA685A607B681B68ED
:100E6C00154A93420ED07B681B68B3F1804F09D0B2
:100E7C007B681B68114A934204D07B681B68104A3C
:100E8C0093420CD1BB6823F08003BB603B685B686A
:100E9C00BA681343BB607B681B68BA689A607B684E
:100EAC00012283F83D207B68002283F83C2000233C
:100EBC0018461037BD4680BD002C01400004004090
:100ECC0000080040103C000880B483B000AF78608C
:100EDC0000BF0C37BD4680BC704780B483B000AFF8
:100EEC00786000BF0C37BD4680BC704780B500AF42
:100EFC00084B1B68074A43F010031360032001F0F2
:100F0C005FFC0F2000F008F802F0B0FB002318463D
:100F1C0080BD00BF0020024080B582B000AF786079
:100F2C00124B1A68124B1B7819464FF47A73B3FBA9
:100F3C00F1F3B2FBF3F3184601F0A6FC0346002BC9
:100F4C0001D001230EE07B680F2B0AD800227968B0
:100F5C004FF0FF3001F054FC064A7B68136000230D
:100F6C0000E0012318460837BD4680BD0000002074
:100F7C00080000200400002080B400AF054B1B7853
:100F8C001A46054B1B681344034A136000BFBD4649
:100F9C0080BC7047080000202800002080B400AFFF
:100FAC00024B1B681846BD4680BC704728000020C9
:100FBC0080B584B000AF7860FFF7F0FFB8607B6855
:100FCC00FB60FB68B3F1FF3F05D00A4B1B781A4658
:100FDC00FB681344FB6000BFFFF7E0FF0246BB68F1
:100FEC00D31AFA689A42F7D800BF00BF1037BD4633
:100FFC0080BD00BF0800002080B586B000AF7860CF
:10100C007B68002B01D101235AE37B681B68002B02
:10101C001CD07B681B6803F00103002B16D17B6886
:10102C001B6803F00203002B10D17B681B6803F0D4
:10103C000803002B0AD17B681B6803F00403002B08
:10104C0004D140F265118F4802F0F6FA7B681B68F8
:10105C0003F00103002B00F09A807B685B68002B87
:10106C000ED07B685B68B3F5803F09D07B685B680A
:10107C00B3F5A02F04D040F26B11824802F0DCFAD9
:10108C00814B5B6803F00C03042B0CD07E4B5B682C
:10109C0003F00C03082B12D17B4B5B6803F48033F9
:1010AC00B3F5803F0BD1784B1B6803F40033002B56
:1010BC006CD07B685B68002B68D1012300E37B68F4
:1010CC005B68B3F5803F06D16F4B1B686E4A43F4E7
:1010DC00803313602EE07B685B68002B0CD16A4B6D
:1010EC001B68694A23F480331360674B1B68664A9C
:1010FC0023F4802313601DE07B685B68B3F5A02F9D
:10110C000CD1614B1B68604A43F4802313605E4B27
:10111C001B685D4A43F4803313600BE05A4B1B6829
:10112C00594A23F480331360574B1B68564A23F4F7
:10113C00802313607B685B68002B13D0FFF72EFFB6
:10114C00386108E0FFF72AFF02463B69D31A642B8B
:10115C0001D90323B4E24C4B1B6803F40033002B7E
:10116C00F0D014E0FFF71AFF386108E0FFF716FF24
:10117C0002463B69D31A642B01D90323A0E2424BEC
:10118C001B6803F40033002BF0D100E000BF7B6838
:10119C001B6803F00203002B00F080807B681B6946
:1011AC00002B08D07B681B69012B04D040F29F11E7
:1011BC00344802F041FA7B685B691F2B04D94FF469
:1011CC00D071304802F038FA2F4B5B6803F00C03F7
:1011DC00002B0BD02C4B5B6803F00C03082B1CD1A1
:1011EC00294B5B6803F48033002B16D1264B1B680C
:1011FC0003F00203002B05D07B681B69012B01D087
:10120C0001235DE2204B1B6823F0F8027B685B69CD
:10121C00DB001D4913430B6040E07B681B69002B0E
:10122C0020D01A4B01221A60FFF7B8FE386108E093
:10123C00FFF7B4FE02463B69D31A022B01D90323F4
:10124C003EE2114B1B6803F00203002BF0D00E4B57
:10125C001B6823F0F8027B685B69DB000A491343C7
:10126C000B601BE0094B00221A60FFF797FE3861F8
:10127C000EE0FFF793FE02463B69D31A022B07D907
:10128C0003231DE2783C000800100240000042429B
:10129C007D4B1B6803F00203002BEAD17B681B68B3
:1012AC0003F00803002B40D07B689B69002B08D00F
:1012BC007B689B69012B04D04FF4F071734802F0EA
:1012CC00BBF97B689B69002B19D0714B01221A600A
:1012DC00FFF764FE386108E0FFF760FE02463B69E9
:1012EC00D31A022B01D90323EAE1674B5B6A03F0A3
:1012FC000203002BF0D0012000F002FC15E0644B3F
:10130C0000221A60FFF74AFE386108E0FFF746FE3C
:10131C0002463B69D31A022B01D90323D0E15A4B65
:10132C005B6A03F00203002BF0D17B681B6803F0AF
:10133C000403002B00F0BF800023FB757B68DB6887
:10134C00002B0CD07B68DB68012B08D07B68DB683A
:10135C00052B04D040F20F214C4802F06DF94A4B9A
:10136C00DB6903F08053002B0DD1474BDB69464AF8
:10137C0043F08053D361444BDB6903F08053BB6073
:10138C00BB680123FB75434B1B6803F48073002B74
:10139C0018D1404B1B683F4A43F480731360FFF72E
:1013AC00FDFD386108E0FFF7F9FD02463B69D31AF1
:1013BC00642B01D9032383E1364B1B6803F4807340
:1013CC00002BF0D07B68DB68012B06D12E4B1B6AFF
:1013DC002D4A43F0010313622DE07B68DB68002B80
:1013EC000CD1294B1B6A284A23F001031362264BAC
:1013FC001B6A254A23F0040313621CE07B68DB683C
:10140C00052B0CD1204B1B6A1F4A43F004031362BB
:10141C001D4B1B6A1C4A43F0010313620BE01A4B71
:10142C001B6A194A23F001031362174B1B6A164AF5
:10143C0023F0040313627B68DB68002B15D0FFF7E5
:10144C00ADFD38610AE0FFF7A9FD02463B69D31AEE
:10145C0041F28832934201D9032331E10A4B1B6AD2
:10146C0003F00203002BEED01CE0FFF797FD386170
:10147C0012E0FFF793FD02463B69D31A41F2883222
:10148C00934209D903231BE100100240783C000869
:10149C0080044242007000408B4B1B6A03F0020335
:1014AC00002BE6D1FB7D012B05D1874BDB69864AEE
:1014BC0023F08053D3617B68DB69002B0CD07B68F5
:1014CC00DB69012B08D07B68DB69022B04D040F26E
:1014DC00AD217E4802F0B0F87B68DB69002B00F090
:1014EC00EE80794B5B6803F00C03082B00F0CE8088
:1014FC007B68DB69022B40F0B2807B681B6A002B97
:10150C0009D07B681B6AB3F5803F04D040F2B6214A
:10151C006E4802F091F87B685B6A002B4AD07B68BE
:10152C005B6AB3F5802F45D07B685B6AB3F5002FFF
:10153C0040D07B685B6AB3F5402F3BD07B685B6A1D
:10154C00B3F5801F36D07B685B6AB3F5A01F31D032
:10155C007B685B6AB3F5C01F2CD07B685B6AB3F504
:10156C00E01F27D07B685B6AB3F5001F22D07B6835
:10157C005B6AB3F5101F1DD07B685B6AB3F5201F47
:10158C0018D07B685B6AB3F5301F13D07B685B6A3D
:10159C00B3F5401F0ED07B685B6AB3F5501F09D0C2
:1015AC007B685B6AB3F5601F04D040F2B7214748F3
:1015BC0002F042F8464B00221A60FFF7EFFC38614C
:1015CC0008E0FFF7EBFC02463B69D31A022B01D96A
:1015DC00032375E03C4B1B6803F00073002BF0D128
:1015EC007B681B6AB3F5803F16D17B689B68002B28
:1015FC0009D07B689B68B3F5003F04D040F2CD2145
:10160C00324802F019F8304B5B6823F400327B68E7
:10161C009B682D4913434B602B4B5B6823F474126E
:10162C007B68196A7B685B6A0B43274913434B60E1
:10163C00274B01221A60FFF7B1FC386108E0FFF775
:10164C00ADFC02463B69D31A022B01D9032337E0C8
:10165C001D4B1B6803F00073002BF0D02FE01C4BCC
:10166C0000221A60FFF79AFC386108E0FFF796FC3D
:10167C0002463B69D31A022B01D9032320E0124BFB
:10168C001B6803F00073002BF0D118E07B68DB695A
:10169C00012B01D1012313E00B4B5B68FB60FB6852
:1016AC0003F480327B681B6A9A4206D1FB6803F410
:1016BC0070127B685B6A9A4201D0012300E0002320
:1016CC0018461837BD4680BD00100240783C000813
:1016DC006000424280B584B000AF786039607B68AE
:1016EC00002B01D1012376E17B681B6803F0010319
:1016FC00002B16D17B681B6803F00203002B10D162
:10170C007B681B6803F00403002B0AD17B681B6801
:10171C0003F00803002B04D140F23631744801F079
:10172C008BFF3B68002B0AD03B68012B07D03B6832
:10173C00022B04D040F237316D4801F07DFF6D4B28
:10174C001B6803F007033A689A4210D9694B1B686F
:10175C0023F0070267493B6813430B60654B1B681A
:10176C0003F007033A689A4201D0012333E17B6806
:10177C001B6803F00203002B49D07B681B6803F045
:10178C000403002B05D05C4B5B685B4A43F4E063BD
:10179C0053607B681B6803F00803002B05D0564B85
:1017AC005B68554A43F4605353607B689B68002B1D
:1017BC0024D07B689B68802B20D07B689B68902B07
:1017CC001CD07B689B68A02B18D07B689B68B02BC7
:1017DC0014D07B689B68C02B10D07B689B68D02B87
:1017EC000CD07B689B68E02B08D07B689B68F02B47
:1017FC0004D040F25D313E4801F01EFF3E4B5B6869
:10180C0023F0F0027B689B683B4913434B607B6879
:10181C001B6803F00103002B51D07B685B68002B25
:10182C000CD07B685B68012B08D07B685B68022B53
:10183C0004D04FF459712E4801F0FEFE7B685B68B2
:10184C00012B07D12C4B1B6803F40033002B15D153
:10185C000123C0E07B685B68022B07D1264B1B6819
:10186C0003F00073002B09D10123B4E0224B1B6859
:10187C0003F00203002B01D10123ACE01E4B5B688B
:10188C0023F003027B685B681B4913434B60FFF733
:10189C0085FBF8600AE0FFF781FB0246FB68D31A70
:1018AC0041F28832934201D9032394E0124B5B68D6
:1018BC0003F00C027B685B689B009A42EBD10D4BEA
:1018CC001B6803F007033A689A4217D2094B1B684E
:1018DC0023F0070207493B6813430B60054B1B6859
:1018EC0003F007033A689A4208D0012373E000BF63
:1018FC00783C000800200240001002407B681B6806
:10190C0003F00403002B25D07B68DB68002B18D078
:10191C007B68DB68B3F5806F13D07B68DB68B3F54D
:10192C00A06F0ED07B68DB68B3F5C06F09D07B6805
:10193C00DB68B3F5E06F04D040F2A231284801F027
:10194C007BFE284B5B6823F4E0627B68DB682549EF
:10195C0013434B607B681B6803F00803002B26D0F5
:10196C007B681B69002B18D07B681B69B3F5806FF3
:10197C0013D07B681B69B3F5A06F0ED07B681B6915
:10198C00B3F5C06F09D07B681B69B3F5E06F04D069
:10199C0040F2A931124801F04FFE124B5B6823F460
:1019AC0060527B681B69DB000E4913434B6000F0EF
:1019BC0021F802460B4B5B681B0903F00F030A4925
:1019CC00CB5C22FA03F3094A1360094B1B681846D7
:1019DC00FFF7A2FA002318461037BD4680BD00BFA2
:1019EC00783C000800100240703E00080000002007
:1019FC000400002080B487B000AF0023FB600023FC
:101A0C00BB6000237B6100237B6000233B611E4B8A
:101A1C005B68FB60FB6803F00C03042B02D0082B03
:101A2C0003D027E0194B3B6127E0FB689B0C03F0CC
:101A3C000F03174AD35C7B60FB6803F48033002BE5
:101A4C0010D0114B5B685B0C03F00103114AD35CA3
:101A5C00BB607B680D4A03FB02F2BB68B2FBF3F37D
:101A6C007B6104E07B680C4A02FB03F37B617B69BE
:101A7C003B6102E0054B3B6100BF3B6918461C37DC
:101A8C00BD4680BC704700BF0010024000127A00B7
:101A9C00883E0008983E000800093D0080B400AF65
:101AAC00024B1B681846BD4680BC704700000020E6
:101ABC0080B500AFFFF7F2FF0246054B5B681B0ACF
:101ACC0003F007030349CB5C22FA03F3184680BDED
:101ADC0000100240803E000880B500AFFFF7DEFF2B
:101AEC000246054B5B68DB0A03F007030349CB5C3A
:101AFC0022FA03F3184680BD00100240803E000815
:101B0C0080B485B000AF78600A4B1B680A4AA2FB10
:101B1C0003235B0A7A6802FB03F3FB6000BFFB68DC
:101B2C005A1EFA60002BF9D100BF00BF1437BD4616
:101B3C0080BC704700000020D34D621080B58AB085
:101B4C0000AF7860396000237B6200233B627B68C6
:101B5C00964A934213D07B68954A93420FD07B6888
:101B6C00944A93420BD07B68934A934207D07B688C
:101B7C00924A934203D0BD21914801F05DFD3B6830
:101B8C001B689BB2002B04D03B681B68B3F5803FED
:101B9C0003D3BE218A4801F04FFD3B685B68002BE4
:101BAC0000F01D823B685B68012B00F018823B68DB
:101BBC005B68112B00F013823B685B68022B00F012
:101BCC000E823B685B68122B00F009823B685B68F5
:101BDC007C4A934200F003823B685B687A4A9342EA
:101BEC0000F0FD813B685B68784A934200F0F78116
:101BFC003B685B68764A934200F0F1813B685B6816
:101C0C00744A934200F0EB813B685B68724A9342E2
:101C1C0000F0E5813B685B68032B00F0E081BF219D
:101C2C00674801F009FDDAE101227B6A02FA03F34D
:101C3C00FB613B681B68FA691340BB61BA69FB69BD
:101C4C009A4240F0C9817B68584A934213D07B6812
:101C5C00574A93420FD07B68564A93420BD07B680D
:101C6C00554A934207D07B68544A934203D0CD2106
:101C7C00534801F0E1FC3B685B68574A934200F023
:101C8C00C280554A934200F2E880504A934200F0D9
:101C9C00BA804E4A934200F2E0804E4A934200F0E2
:101CAC00B2804C4A934200F2D880474A934200F0EB
:101CBC00AA80454A934200F2D080454A934200F0F4
:101CCC00A280434A934200F2C880122B2CD8122BCC
:101CDC0000F2C38001A252F823F000BF131E0008CB
:101CEC003D1D00088F1D0008611E0008671E0008BE
:101CFC00671E0008671E0008671E0008671E0008A4
:101D0C00671E0008671E0008671E0008671E000893
:101D1C00671E0008671E0008671E0008671E000883
:101D2C00651D0008E91D0008264A93426BD094E01B
:101D3C003B68DB68022B0BD03B68DB68012B07D0C0
:101D4C003B68DB68032B03D0D5211D4801F074FCE4
:101D5C003B68DB683B6281E03B68DB68022B0BD0A5
:101D6C003B68DB68012B07D03B68DB68032B03D097
:101D7C00DC21134801F060FC3B68DB6804333B62F8
:101D8C006CE03B68DB68022B0BD03B68DB68012BFB
:101D9C0007D03B68DB68032B03D0E321084801F034
:101DAC004BFC3B68DB6808333B6257E000080140A2
:101DBC00000C0140001001400014014000180140CB
:101DCC00DC3C000800001110000021100000311054
:101DDC000000121000002210000032103B68DB687B
:101DEC00022B0BD03B68DB68012B07D03B68DB6810
:101DFC00032B03D0EA21804801F01EFC3B68DB6812
:101E0C000C333B622AE03B689B68002B0BD03B6891
:101E1C009B68012B07D03B689B68022B03D0F721F2
:101E2C00754801F009FC3B689B68002B02D1042328
:101E3C003B6213E03B689B68012B05D108233B6296
:101E4C007B68FA691A6109E008233B627B68FA69CE
:101E5C005A6103E000233B6200E000BFBB69FF2B2B
:101E6C0001D87B6801E07B6804337B61BB69FF2B85
:101E7C0002D87B6A9B0002E07B6A083B9B003B61BB
:101E8C007B691A680F213B6901FA03F3DB431A40A3
:101E9C00396A3B6901FA03F31A437B691A603B68A0
:101EAC005B6803F08053002B00F09680534B9B69CA
:101EBC00524A43F001039361504B9B6903F00103B9
:101ECC00BB60BB684E4A7B6A9B08023352F82330D6
:101EDC00FB607B6A03F003039B000F2202FA03F3FF
:101EEC00DB43FA681340FB607B68464A934213D08D
:101EFC007B68454A93420DD07B68444A934207D095
:101F0C007B68434A934201D1032306E0042304E097
:101F1C00022302E0012300E000237A6A02F00302AC
:101F2C0092009340FA681343FB6035497B6A9B0827
:101F3C000233FA6841F823203B685B6803F4801392
:101F4C00002B06D0334B9A683249BB6913438B6024
:101F5C0006E0304B9A68BB69DB432E4913408B601B
:101F6C003B685B6803F40013002B06D0294BDA683E
:101F7C002849BB691343CB6006E0264BDA68BB6982
:101F8C00DB4324491340CB603B685B6803F40033AC
:101F9C00002B06D01F4B5A681E49BB6913434B607C
:101FAC0006E01C4B5A68BB69DB431A4913404B6073
:101FBC003B685B6803F48033002B06D0154B1A6822
:101FCC001449BB6913430B6006E0124B1A68BB69DA
:101FDC00DB43104913400B607B6A01337B623B6827
:101FEC001A687B6A22FA03F3002B7FF41DAE00BF44
:101FFC0000BF2837BD4680BDDC3C00080010024005
:10200C000000014000080140000C0140001001409C
:10201C00001401400004014080B582B000AF78602C
:10202C000B467B8013467B707B88002B04D14FF4CE
:10203C00EA710E4801F000FB7B78002B07D07B780F
:10204C00012B04D040F2D511084801F0F5FA7B7849
:10205C00002B03D07A887B681A6103E07B881A0412
:10206C007B681A6100BF0837BD4680BDDC3C0008A8
:10207C0080B584B000AF78600B467B807B88002BEA
:10208C0004D14FF4F6710A4801F0D6FA7B68DB688C
:10209C00FB607A88FB6813401A04FB68D9437B8881
:1020AC000B401A437B681A6100BF1037BD4680BDD8
:1020BC00DC3C000880B584B000AF78600023FB6086
:1020CC007B68002B01D10123DAE07B681B686E4A28
:1020DC00934221D07B681B686C4A93421CD07B686E
:1020EC001B686B4A934217D07B681B68694A934202
:1020FC0012D07B681B68684A93420DD07B681B68C2
:10210C00664A934208D07B681B68654A934203D0A9
:10211C009921644801F090FA7B685B68002B0CD025
:10212C007B685B68102B08D07B685B68B3F5804FCD
:10213C0003D09A215B4801F07FFA7B689B68402BA7
:10214C0007D07B689B68002B03D09B21554801F07E
:10215C0073FA7B68DB68802B07D07B68DB68002B0D
:10216C0003D09C214F4801F067FA7B681B69002B58
:10217C000DD07B681B69B3F5807F08D07B681B6929
:10218C00B3F5007F03D09D21464801F055FA7B68DA
:10219C005B69002B0DD07B685B69B3F5806F08D051
:1021AC007B685B69B3F5006F03D09E213D4801F05D
:1021BC0043FA7B689B69002B07D07B689B69202BBB
:1021CC0003D09F21374801F037FA7B68DB69002B7D
:1021DC0012D07B68DB69B3F5805F0DD07B68DB695F
:1021EC00B3F5005F08D07B68DB69B3F5405F03D0C3
:1021FC00A0212C4801F020FA7B681B681A462A4B58
:10220C0013442A4AA2FB03231B099A007B681A6415
:10221C007B68274ADA637B68022283F821207B687B
:10222C001B681B68FB60FB6823F47F5323F03003AF
:10223C00FB607B685A687B689B681A437B68DB6829
:10224C001A437B681B691A437B685B691A437B687A
:10225C009B691A437B68DB691343FA681343FB6081
:10226C007B681B68FA681A607B6800229A637B683B
:10227C00012283F821207B68002283F82020002390
:10228C0018461037BD4680BD080002401C000240B5
:10229C003000024044000240580002406C000240F2
:1022AC0080000240403D0008F8FFFDBFCDCCCCCCF7
:1022BC000000024080B485B000AF78600023FB734F
:1022CC007B6893F82130DBB2022B08D07B680422A8
:1022DC009A637B68002283F82020012320E07B682E
:1022EC001B681A687B681B6822F00E021A607B68F8
:1022FC001B681A687B681B6822F001021A607B68F5
:10230C001A6C7B68DB6B012101FA02F25A607B6864
:10231C00012283F821207B68002283F82020FB7B9C
:10232C0018461437BD4680BC7047000080B584B099
:10233C0000AF78600023FB737B6893F82130DBB22D
:10234C00022B05D07B6804229A630123FB7351E0B6
:10235C007B681B681A687B681B6822F00E021A6087
:10236C007B681B681A687B681B6822F001021A6084
:10237C007B681B68224A934229D07B681B68214AE0
:10238C00934222D07B681B681F4A93421AD07B6809
:10239C001B681E4A934212D07B681B681C4A9342EE
:1023AC000AD07B681B681B4A934202D14FF48013FE
:1023BC000EE04FF080730BE04FF4803308E04FF4E5
:1023CC00805305E04FF4807302E0102300E00123FA
:1023DC00114A53607B68012283F821207B6800221C
:1023EC0083F820207B685B6B002B03D07B685B6BD6
:1023FC0078689847FB7B18461037BD4680BD00BFF8
:10240C00080002401C000240300002404400024020
:10241C00580002406C0002400000024080B584B0BD
:10242C0000AF78607B68DB6B1B68FB607B681B68AC
:10243C001B68BB607B681B6C04229A40FB681340D2
:10244C00002B4FD0BB6803F00403002B4AD07B68F1
:10245C001B681B6803F02003002B07D17B681B68EB
:10246C001A687B681B6822F004021A607B681B6880
:10247C00664A934229D07B681B68654A934222D0F6
:10248C007B681B68634A93421AD07B681B68624A5C
:10249C00934212D07B681B68604A93420AD07B68D7
:1024AC001B685F4A934202D14FF480030EE04FF059
:1024BC0080630BE04FF4802308E04FF4804305E089
:1024CC004FF4806302E0402300E00423554A53603C
:1024DC007B68DB6A002B00F094807B68DB6A786891
:1024EC0098478EE07B681B6C02229A40FB68134075
:1024FC00002B56D0BB6803F00203002B51D07B6835
:10250C001B681B6803F02003002B0BD17B681B6836
:10251C001A687B681B6822F00A021A607B68012229
:10252C0083F821207B681B68384A934229D07B684A
:10253C001B68374A934222D07B681B68354A93420A
:10254C001AD07B681B68344A934212D07B681B6894
:10255C00324A93420AD07B681B68314A934202D1BB
:10256C004FF400130EE04FF000730BE04FF4003308
:10257C0008E04FF4005305E04FF4007302E0202311
:10258C0000E00223274A53607B68002283F8202056
:10259C007B689B6A002B34D07B689B6A7868984771
:1025AC002FE07B681B6C08229A40FB681340002BC1
:1025BC0028D0BB6803F00803002B23D07B681B6872
:1025CC001A687B681B6822F00E021A607B681A6C12
:1025DC007B68DB6B012101FA02F25A607B680122F5
:1025EC009A637B68012283F821207B68002283F8A0
:1025FC0020207B681B6B002B04D07B681B6B7868DE
:10260C00984700BF00BF1037BD4680BD0800024090
:10261C001C000240300002404400024058000240BE
:10262C006C0002400000024080B485B000AF7860BE
:10263C007B6803F00703FB600C4BDB68BB60BA687C
:10264C004FF6FF031340BB60FB681A02BB681343D1
:10265C0043F0BF6343F40033BB60044ABB68D360F0
:10266C0000BF1437BD4680BC704700BF00ED00E0D2
:10267C0080B400AF044BDB681B0A03F00703184659
:10268C00BD4680BC704700BF00ED00E080B483B055
:10269C0000AF0346FB7197F90730002B0BDBFB797E
:1026AC0003F01F02064997F907305B09012000FA75
:1026BC0002F241F8232000BF0C37BD4680BC7047A6
:1026CC0000E100E080B483B000AF03463960FB71D9
:1026DC0097F90730002B0ADB3B68DAB20C4997F903
:1026EC0007301201D2B20B4483F800230AE03B6896
:1026FC00DAB20849FB7903F00F03043B1201D2B2A2
:10270C000B441A7600BF0C37BD4680BC704700BF27
:10271C0000E100E000ED00E080B489B000AFF860AB
:10272C00B9607A60FB6803F00703FB61FB69C3F1D6
:10273C000703042B28BF0423BB61FB690433062B5E
:10274C0002D9FB69033B00E000237B614FF0FF32B1
:10275C00BB6902FA03F3DA43BB681A407B699A40FF
:10276C004FF0FF317B6901FA03F3D9437B680B40CF
:10277C00134318462437BD4680BC704780B582B0E1
:10278C0000AF78607B68013BB3F1807F01D30123FC
:10279C000FE00A4A7B68013B53600F214FF0FF307A
:1027AC00FFF790FF054B00229A60044B07221A603A
:1027BC00002318460837BD4680BD00BF10E000E07E
:1027CC0080B582B000AF78607B68072B0FD07B6838
:1027DC00062B0CD07B68052B09D07B68042B06D00C
:1027EC007B68032B03D09121044800F025FF786807
:1027FC00FFF71AFF00BF0837BD4680BDA43D000897
:10280C0080B586B000AF0346B9607A60FB730023D5
:10281C007B617B680F2B03D9A9210E4800F00CFFBC
:10282C00BB680F2B03D9AA210A4800F005FFFFF75C
:10283C001FFF78617A68B9687869FFF76DFF024607
:10284C0097F90F3011461846FFF73CFF00BF1837B9
:10285C00BD4680BDA43D000880B582B000AF0346E4
:10286C00FB7197F90730002B03DABD21054800F006
:10287C00E3FE97F907301846FFF708FF00BF08374B
:10288C00BD4680BDA43D000880B582B000AF786025
:10289C007868FFF773FF034618460837BD4680BDBE
:1028AC0080B582B000AF78607B68002B01D101232A
:1028BC0095E07B689B69002B2CD07B681B684A4A8F
:1028CC0093420ED07B681B68484A934209D07B68C0
:1028DC001B68474A934204D04FF4B771454800F047
:1028EC00ABFE7B689B69002B28D07B689B69B3F59A
:1028FC00807F23D07B689B69B3F5007F1ED07B68FB
:10290C009B69B3F5407F19D040F26F11394800F044
:10291C0093FE13E07B681B68334A93420ED07B68AE
:10292C001B68324A934209D07B681B68304A934239
:10293C0004D040F273112F4800F07EFE7B689B6838
:10294C00002B09D07B689B68B3F5805F04D040F204
:10295C007511284800F070FE7B6893F84130DBB2AB
:10296C00002B06D17B68002283F84020786800F0A9
:10297C00C7FF7B68242283F841207B681B68DA68D8
:10298C007B681B6822F40052DA60786800F088FCDF
:10299C007B681B681A697B681B6822F490421A6179
:1029AC007B681B685A697B681B6822F02A025A6193
:1029BC007B681B68DA687B681B6842F40052DA603B
:1029CC007B6800225A647B68202283F841207B6854
:1029DC00202283F842207B6800225A630023184689
:1029EC000837BD4680BD00BF0038014000440040A0
:1029FC00004800400C3E000880B5BAB000AF7860CB
:102A0C007B681B681B68C7F8E4307B681B68DB6855
:102A1C00C7F8E0307B681B685B69C7F8DC300023C3
:102A2C00C7F8D8300023C7F8D430D7F8E43003F017
:102A3C000F03C7F8D830D7F8D830002B0FD1D7F800
:102A4C00E43003F02003002B09D0D7F8E03003F07A
:102A5C002003002B03D0786800F063FB5BE2D7F80F
:102A6C00D830002B00F0DE80D7F8DC3003F0010307
:102A7C00002B06D1D7F8E03003F49073002B00F054
:102A8C00D180D7F8E43003F00103002B0BD0D7F83A
:102A9C00E03003F48073002B05D07B685B6C43F053
:102AAC0001027B685A64D7F8E43003F00403002B6E
:102ABC000BD0D7F8DC3003F00103002B05D07B687A
:102ACC005B6C43F002027B685A64D7F8E43003F085
:102ADC000203002B0BD0D7F8DC3003F00103002BE2
:102AEC0005D07B685B6C43F004027B685A64D7F8B2
:102AFC00E43003F00803002B11D0D7F8E03003F0DA
:102B0C002003002B05D1D7F8DC3003F00103002B98
:102B1C0005D07B685B6C43F008027B685A647B6869
:102B2C005B6C002B00F0F281D7F8E43003F020034B
:102B3C00002B08D0D7F8E03003F02003002B02D094
:102B4C00786800F0EEFA7B681B685B6903F0400361
:102B5C00002B14BF01230023DBB2C7F8D4307B68F1
:102B6C005B6C03F00803002B03D1D7F8D430002B97
:102B7C004FD0786800F0F8F97B681B685B6903F04C
:102B8C004003002B41D07B681B681433C7F89C3082
:102B9C00D7F89C3053E8003FC7F89830D7F89830F6
:102BAC0023F04003C7F8D0307B681B681433D7F888
:102BBC00D020C7F8A820C7F8A430D7F8A410D7F8AD
:102BCC00A82041E80023C7F8A030D7F8A030002B8C
:102BDC00D9D17B68DB6B002B13D07B68DB6B7E4A17
:102BEC005A637B68DB6B1846FFF7A0FB0346002B90
:102BFC0016D07B68DB6B5B6B7A68D26B10469847A0
:102C0C000EE0786800F09CF90AE0786800F098F91A
:102C1C0006E0786800F094F97B6800225A6475E14C
:102C2C0000BF73E17B681B6B012B40F04F81D7F821
:102C3C00E43003F01003002B00F04881D7F8E030AB
:102C4C0003F01003002B00F041810023BB607B6874
:102C5C001B681B68BB607B681B685B68BB60BB68E0
:102C6C007B681B685B6903F04003002B00F0B680A7
:102C7C007B68DB6B1B685B68A7F8BE30B7F8BE30AF
:102C8C00002B00F045817B689B8DB7F8BE209A42E3
:102C9C0080F03E817B68B7F8BE20DA857B68DB6B01
:102CAC009B69202B00F088807B681B680C33C7F86D
:102CBC008830D7F8883053E8003FC7F88430D7F80D
:102CCC00843023F48073C7F8B8307B681B680C33EE
:102CDC00D7F8B820C7F89420C7F89030D7F89010E0
:102CEC00D7F8942041E80023C7F88C30D7F88C3003
:102CFC00002BD9D17B681B6814337B677B6F53E83F
:102D0C00003F3B673B6F23F00103C7F8B4307B688F
:102D1C001B681433D7F8B420C7F88020FB67F96F11
:102D2C00D7F8802041E80023BB67BB6F002BE1D1B3
:102D3C007B681B6814333B663B6E53E8003FFB65B6
:102D4C00FB6D23F04003C7F8B0307B681B6814336D
:102D5C00D7F8B020FA66BB66B96EFA6E41E800236C
:102D6C007B667B6E002BE3D17B68202283F84220AC
:102D7C007B6800221A637B681B680C33FB64FB6C5A
:102D8C0053E8003FBB64BB6C23F01003C7F8AC30B6
:102D9C007B681B680C33D7F8AC20BA657B65796D02
:102DAC00BA6D41E800233B653B6D002BE3D17B689A
:102DBC00DB6B1846FFF77EFA7B6802225A637B684E
:102DCC009A8D7B68DB8D9BB2D31A9BB219467868BF
:102DDC0000F0BFF89CE000BF393000087B689A8D8A
:102DEC007B68DB8D9BB2D31AA7F8CE307B68DB8D6A
:102DFC009BB2002B00F08E80B7F8CE30002B00F089
:102E0C0089807B681B680C33BB63BB6B53E8003F4A
:102E1C007B637B6B23F49073C7F8C8307B681B68AB
:102E2C000C33D7F8C8207A643B64396C7A6C41E86F
:102E3C000023FB63FB6B002BE3D17B681B68143313
:102E4C007B627B6A53E8003F3B623B6A23F00103E1
:102E5C00C7F8C4307B681B681433D7F8C4203A63B6
:102E6C00FB62F96A3A6B41E80023BB62BB6A002B38
:102E7C00E3D17B68202283F842207B6800221A630E
:102E8C007B681B680C333B613B6953E8003FFB607C
:102E9C00FB6823F01003C7F8C0307B681B680C3349
:102EAC00D7F8C020FA61BB61B969FA6941E800231F
:102EBC007B617B69002BE3D17B6802225A63B7F8F4
:102ECC00CE301946786800F044F823E0D7F8E430A7
:102EDC0003F08003002B09D0D7F8E03003F0800317
:102EEC00002B03D0786800F0B5F814E0D7F8E43084
:102EFC0003F04003002B0ED0D7F8E03003F0400372
:102F0C00002B08D0786800F0F4F804E000BF02E071
:102F1C0000BF00E000BFE837BD4680BD80B483B081
:102F2C0000AF786000BF0C37BD4680BC704780B4E2
:102F3C0083B000AF786000BF0C37BD4680BC7047D3
:102F4C0080B483B000AF786000BF0C37BD4680BC46
:102F5C00704780B483B000AF78600B467B8000BFB5
:102F6C000C37BD4680BC704780B495B000AF78601C
:102F7C007B681B680C337B637B6B53E8003F3B63C4
:102F8C003B6B23F49073FB647B681B680C33FA6C0B
:102F9C003A64FB63F96B3A6C41E80023BB63BB6B8F
:102FAC00002BE5D17B681B6814333B623B6A53E80A
:102FBC00003FFB61FB6923F00103BB647B681B686A
:102FCC001433BA6CFA62BB62B96AFA6A41E800233C
:102FDC007B627B6A002BE5D17B681B6B012B19D1C3
:102FEC007B681B680C33FB60FB6853E8003FBB60DD
:102FFC00BB6823F010037B647B681B680C337A6C12
:10300C00BA617B617969BA6941E800233B613B692C
:10301C00002BE5D17B68202283F842207B680022BC
:10302C001A6300BF5437BD4680BC704780B584B06E
:10303C0000AF78607B685B6AFB60FB680022DA8516
:10304C00FB680022DA84F868FFF77AFF00BF1037BC
:10305C00BD4680BD80B485B000AF78607B6893F8C6
:10306C004130DBB2212B3ED17B689B68B3F5805F8E
:10307C0014D17B681B69002B10D17B681B6AFB6029
:10308C00FB681B881A467B681B68C2F308025A60EF
:10309C007B681B6A9A1C7B681A6208E07B681B6A57
:1030AC00591C7A6811621A787B681B685A607B68B5
:1030BC00DB8C9BB2013B9BB27A681946D184002B06
:1030CC000FD17B681B68DA687B681B6822F0800272
:1030DC00DA607B681B68DA687B681B6842F0400228
:1030EC00DA60002300E0022318461437BD4680BC8A
:1030FC00704780B582B000AF78607B681B68DA6877
:10310C007B681B6822F04002DA607B68202283F81F
:10311C0041207868FFF702FF002318460837BD46A8
:10312C0080BD80B58CB000AF78607B6893F842307E
:10313C00DBB2222B40F0AE807B689B68B3F5805FDE
:10314C0017D17B681B69002B13D10023FB627B68B2
:10315C009B6ABB627B681B685B689BB2C3F308030A
:10316C009AB2BB6A1A807B689B6A9A1C7B689A62CB
:10317C0026E07B689B6AFB620023BB627B689B68D2
:10318C00B3F5805F07D07B689B68002B0AD17B6806
:10319C001B69002B06D17B681B685B68DAB2FB6A83
:1031AC001A7008E07B681B685B68DBB203F07F0376
:1031BC00DAB2FB6A1A707B689B6A5A1C7B689A624B
:1031CC007B68DB8D9BB2013B9BB27A681946D1853B
:1031DC00002B5DD17B681B68DA687B681B6822F06A
:1031EC002002DA607B681B68DA687B681B6822F453
:1031FC008072DA607B681B685A697B681B6822F0F6
:10320C0001025A617B68202283F842207B680022ED
:10321C005A637B681B6B012B35D17B6800221A63C8
:10322C007B681B680C337B617B6953E8003F3B6117
:10323C003B6923F010037B627B681B680C337A6A52
:10324C003A62FB61F9693A6A41E80023BB61BB69E8
:10325C00002BE5D17B681B681B6803F01003102B57
:10326C000AD10023FB607B681B681B68FB607B68D2
:10327C001B685B68FB60FB687B689B8D19467868F4
:10328C00FFF767FE02E07868FFF751FE002302E0CB
:10329C00002300E0022318463037BD4680BD0000F5
:1032AC0080B584B000AF78607B685B685F4A9342FE
:1032BC0004D940F675615E4800F0BEF97B68DB68A6
:1032CC00002B09D07B68DB68B3F5005F04D040F6B7
:1032DC007661574800F0B0F97B681B69002B0ED063
:1032EC007B681B69B3F5806F09D07B681B69B3F5EC
:1032FC00C06F04D040F677614D4800F09DF97B68B3
:10330C005A694FF6F3731340002B03D17B685B694A
:10331C00002B04D140F67861454800F08DF97B68AC
:10332C001B681B6923F440517B68DA687B681B6857
:10333C000A431A617B689A687B681B691A437B682D
:10334C005B691343BB607B681B68DB6823F4B05379
:10335C0023F00C037A681268B9680B43D3607B685E
:10336C001B685B6923F440717B689A697B681B68F6
:10337C000A435A617B681B682E4A934203D1FEF7BD
:10338C00ABFBF86002E0FEF793FBF860FA681346BB
:10339C009B0013449A001A447B685B689B00B2FB49
:1033AC00F3F3254AA2FB03235B091901FA681346C0
:1033BC009B0013449A001A447B685B689B00B2FB29
:1033CC00F3F21D4BA3FB02035B09642000FB03F328
:1033DC00D31A1B013233184AA2FB03235B0903F0F7
:1033EC00F0031944FA6813469B0013449A001A44DC
:1033FC007B685B689B00B2FBF3F20F4BA3FB0203F1
:10340C005B09642000FB03F3D31A1B0132330A4A15
:10341C00A2FB03235B0903F00F027B681B680A44C1
:10342C009A6000BF1037BD4680BD00BF20AA440083
:10343C000C3E0008003801401F85EB5180B582B06E
:10344C0000AF0C4B5B690B4A43F001035361094B12
:10345C005B6903F001037B607B68002200210F2075
:10346C00FFF7CEF90F20FFF7F7F900BF0837BD467D
:10347C0080BD00BF0010024080B588B000AF07F1DE
:10348C00100300221A605A609A60DA60344B9B6910
:10349C00334A43F010039361314B9B6903F01003E3
:1034AC00FB60FB682E4B9B692D4A43F02003936114
:1034BC002B4B9B6903F02003BB60BB68284B9B69BB
:1034CC00274A43F004039361254B9B6903F00403E3
:1034DC007B607B68224B9B69214A43F00803936114
:1034EC001F4B9B6903F008033B603B6801224FF4C0
:1034FC0000511C48FEF790FD4FF400533B61012333
:10350C007B610023BB610223FB6107F110031946A9
:10351C001448FEF713FB4FF440433B6103237B61DC
:10352C0007F1100319460F48FEF708FB49F6F31391
:10353C003B6103237B6107F1100319460A48FEF730
:10354C00FDFA4FF6FF733B6103237B6107F1100318
:10355C0019460648FEF7F2FA00BF2037BD4680BD7B
:10356C00001002400010014000080140000C014016
:10357C0080B500AFFDF7BAFC00F013F8FFF77CFF45
:10358C00FFF75CFF00F0F8F800F066F900F08EF938
:10359C0000F074FA00F08AFA0120FDF709FD00BF73
:1035AC00F8E780B590B000AF07F11803282200218E
:1035BC00184600F0BCFA3B1D00221A605A609A6053
:1035CC00DA601A610123BB614FF48033FB61002385
:1035DC003B620123BB6202237B634FF48033BB63EA
:1035EC004FF4E013FB6307F118031846FDF704FDD5
:1035FC000346002B01D000F019F80F237B60022347
:10360C00BB600023FB604FF480633B6100237B6154
:10361C003B1D02211846FEF75DF80346002B01D036
:10362C0000F004F800BF4037BD4680BD80B400AF49
:10363C0072B600BF00BFFDE780B483B000AF786006
:10364C00396000BF0C37BD4680BC704780B582B076
:10365C0000AF78607B681B68B3F1804F01D100F03C
:10366C0017FA00BF0837BD4680BD000080B485B096
:10367C0000AF154B9B69144A43F001039361124B45
:10368C009B6903F00103BB60BB680F4BDB690E4AFF
:10369C0043F08053D3610C4BDB6903F080537B60A8
:1036AC007B680A4B5B68FB60FB6823F0E063FB60A4
:1036BC00FB6843F00073FB60044AFB68536000BF77
:1036CC001437BD4680BC704700100240000001401A
:1036DC0080B400AF00BFFDE780B400AF00BFFDE7D2
:1036EC0080B400AF00BFFDE780B400AF00BFFDE7C2
:1036FC0080B400AF00BFFDE780B400AF00BFBD4693
:10370C0080BC704780B400AF00BFBD4680BC704722
:10371C0080B400AF00BFBD4680BC704780B500AF21
:10372C00FDF72AFC00BF80BD80B500AF0248FEF754
:10373C0075FE00BF80BD00BF0401002080B500AF46
:10374C000248FCF74DFE00BF80BD00BF2C000020DE
:10375C0080B500AF0248FFF74FF900BF80BD00BF36
:10376C007400002080B500AF0248FFF745F900BF98
:10377C0080BD00BFBC00002080B586B000AF07F153
:10378C00080300221A605A609A60DA603B460022F5
:10379C001A605A601D4B4FF080421A601B4B472237
:1037AC005A601A4B00229A60184B40F2E732DA60EA
:1037BC00164B00221A61154B00229A611348FCF734
:1037CC00EBFC0346002B01D0FFF730FF4FF4805386
:1037DC00BB6007F1080319460C48FCF7F1FE0346E1
:1037EC00002B01D0FFF722FF00233B6000237B60FE
:1037FC003B4619460548FDF7BDFA0346002B01D0A0
:10380C00FFF714FF00BF1837BD4680BD2C00002009
:10381C0080B584B000AF78607B681B68B3F1804FD3
:10382C0013D10C4BDB690B4A43F00103D361094BF9
:10383C00DB6903F00103FB60FB68002200211C2004
:10384C00FEF7DEFF1C20FFF707F800BF1037BD4660
:10385C0080BD00BF0010024080B500AF114B124A72
:10386C001A60104B4FF4E1325A600E4B00229A60F2
:10387C000C4B0022DA600B4B00221A61094B0C2214
:10388C005A61084B00229A61064B0022DA61054806
:10389C00FFF706F80346002B01D0FFF7C7FE00BF69
:1038AC0080BD00BF740000200038014080B500AF1F
:1038BC00114B124A1A60104B4FF4E1325A600E4B06
:1038CC0000229A600C4B0022DA600B4B00221A612A
:1038DC00094B0C225A61084B00229A61064B0022BC
:1038EC00DA610548FEF7DCFF0346002B01D0FFF739
:1038FC009DFE00BF80BD00BFBC0000200044004006
:10390C0080B58AB000AF786007F1180300221A6006
:10391C005A609A60DA607B681B68524A934260D1A5
:10392C00514B9B69504A43F4804393614E4B9B69C6
:10393C0003F480437B617B694B4B9B694A4A43F0A0
:10394C0004039361484B9B6903F004033B613B699F
:10395C004FF40073BB610223FB6103237B6207F10D
:10396C00180319464148FEF7E9F84FF48063BB6130
:10397C000023FB6100233B6207F1180319463B4807
:10398C00FEF7DCF83A4B3B4A1A60394B00225A607E
:10399C00374B00229A60364B8022DA60344B00227F
:1039AC001A61334B00225A61314B20229A61304B01
:1039BC000022DA612E48FEF77DFB0346002B01D076
:1039CC00FFF734FE7B682A4ADA63294A7B68536224
:1039DC00002200212520FEF713FF2520FEF73CFFD7
:1039EC003CE07B681B68244A934237D11E4BDB6951
:1039FC001D4A43F40033D3611B4BDB6903F40033E2
:103A0C00FB60FB68184B9B69174A43F004039361F6
:103A1C00154B9B6903F00403BB60BB680423BB61BB
:103A2C000223FB6103237B6207F1180319460F483D
:103A3C00FEF784F80823BB610023FB6100233B6283
:103A4C0007F1180319460948FEF778F800220021FF
:103A5C002620FEF7D5FE2620FEF7FEFE00BF2837F7
:103A6C00BD4680BD003801400010024000080140F6
:103A7C0004010020580002400044004080B500AF13
:103A8C000248FCF741FC00BF80BD00BF2C000020A9
:103A9C0080B400AF044B1B680133034A136000BFB2
:103AAC00BD4680BC704700BF4801002080B500AF08
:103ABC00094B1A68094B1B68D31AB3F5FA7F08D364
:103ACC004FF400510648FEF7D3FA034B1B68034A28
:103ADC00136000BF80BD00BF480100204C010020D6
:103AEC0000100140FCF752FB0B480C490C4A002318
:103AFC0002E0D458C4500433C4188C42F9D3094A98
:103B0C00094C002301E013600432A242FBD300F005
:103B1C0017F8FFF72DFD7047000000200C00002067
:103B2C00A43E00080C00002050010020FEE70346D4
:103B3C000244934200D1704703F8011BF9E70000DF
:103B4C0070B500260C4D0D4B5B1B9C10A64209D189
:103B5C00002600F019F80A4D0A4B5B1B9C10A6427C
:103B6C0005D170BD55F8043B98470136EEE755F882
:103B7C00043B98470136F2E79C3E00089C3E000847
:103B8C009C3E0008A03E0008F8B500BFF8BC08BC7D
:103B9C009E467047F8B500BFF8BC08BC9E467047FF
:103BAC00433A2F55736572732F4E696A696E67209D
:103BBC0059692F4465736B746F702F524D2F70724F
:103BCC006F6A656374732F4C616230312F44726974
:103BDC00766572732F53544D3332463178785F4883
:103BEC00414C5F4472697665722F5372632F737404
:103BFC006D3332663178785F68616C5F74696D2EF5
:103C0C0063000000433A2F55736572732F4E696A37
:103C1C00696E672059692F4465736B746F702F52EE
:103C2C004D2F70726F6A656374732F4C6162303103
:103C3C002F447269766572732F53544D333246316B
:103C4C0078785F48414C5F4472697665722F537285
:103C5C00632F73746D3332663178785F68616C5F93
:103C6C0074696D5F65782E6300000000433A2F5530
:103C7C00736572732F4E696A696E672059692F4498
:103C8C0065736B746F702F524D2F70726F6A656312
:103C9C0074732F4C616230312F4472697665727384
:103CAC002F53544D3332463178785F48414C5F4442
:103CBC0072697665722F5372632F73746D3332662B
:103CCC003178785F68616C5F7263632E630000000B
:103CDC00433A2F55736572732F4E696A696E67206C
:103CEC0059692F4465736B746F702F524D2F70721E
:103CFC006F6A656374732F4C616230312F44726943
:103D0C00766572732F53544D3332463178785F4851
:103D1C00414C5F4472697665722F5372632F7374D2
:103D2C006D3332663178785F68616C5F6770696F8C
:103D3C002E630000433A2F55736572732F4E696AD8
:103D4C00696E672059692F4465736B746F702F52BD
:103D5C004D2F70726F6A656374732F4C61623031D2
:103D6C002F447269766572732F53544D333246313A
:103D7C0078785F48414C5F4472697665722F537254
:103D8C00632F73746D3332663178785F68616C5F62
:103D9C00646D612E63000000433A2F557365727396
:103DAC002F4E696A696E672059692F4465736B746D
:103DBC006F702F524D2F70726F6A656374732F4C36
:103DCC00616230312F447269766572732F53544D92
:103DDC003332463178785F48414C5F44726976657E
:103DEC00722F5372632F73746D3332663178785F30
:103DFC0068616C5F636F727465782E6300000000FD
:103E0C00433A2F55736572732F4E696A696E67203A
:103E1C0059692F4465736B746F702F524D2F7072EC
:103E2C006F6A656374732F4C616230312F44726911
:103E3C00766572732F53544D3332463178785F4820
:103E4C00414C5F4472697665722F5372632F7374A1
:103E5C006D3332663178785F68616C5F756172744E
:103E6C002E630000000000000000000001020304AB
:103E7C000607080900000000010203040203040500
:103E8C00060708090A0B0C0D0E0F1010010200009A
:043E9C0075010008A4
:043EA0004D010008C8
:0C3EA40000127A00100000000100000075
:0400000508003AF1C4
:00000001FF
